{
  "_format": "hh-sol-artifact-1",
  "contractName": "MyEpicNFT",
  "sourceName": "contracts/MyEpicNFT.sol",
  "abi": [
    {
      "inputs": [],
      "stateMutability": "nonpayable",
      "type": "constructor"
    },
    {
      "anonymous": false,
      "inputs": [
        {
          "indexed": true,
          "internalType": "address",
          "name": "owner",
          "type": "address"
        },
        {
          "indexed": true,
          "internalType": "address",
          "name": "approved",
          "type": "address"
        },
        {
          "indexed": true,
          "internalType": "uint256",
          "name": "tokenId",
          "type": "uint256"
        }
      ],
      "name": "Approval",
      "type": "event"
    },
    {
      "anonymous": false,
      "inputs": [
        {
          "indexed": true,
          "internalType": "address",
          "name": "owner",
          "type": "address"
        },
        {
          "indexed": true,
          "internalType": "address",
          "name": "operator",
          "type": "address"
        },
        {
          "indexed": false,
          "internalType": "bool",
          "name": "approved",
          "type": "bool"
        }
      ],
      "name": "ApprovalForAll",
      "type": "event"
    },
    {
      "anonymous": false,
      "inputs": [
        {
          "indexed": false,
          "internalType": "uint256",
          "name": "totalNFTs",
          "type": "uint256"
        },
        {
          "indexed": false,
          "internalType": "uint256",
          "name": "mintTimes",
          "type": "uint256"
        }
      ],
      "name": "GetTotalNFTMint",
      "type": "event"
    },
    {
      "anonymous": false,
      "inputs": [
        {
          "indexed": false,
          "internalType": "address",
          "name": "sender",
          "type": "address"
        },
        {
          "indexed": false,
          "internalType": "uint256",
          "name": "tokenId",
          "type": "uint256"
        }
      ],
      "name": "NewEpicNFTMinted",
      "type": "event"
    },
    {
      "anonymous": false,
      "inputs": [
        {
          "indexed": true,
          "internalType": "address",
          "name": "from",
          "type": "address"
        },
        {
          "indexed": true,
          "internalType": "address",
          "name": "to",
          "type": "address"
        },
        {
          "indexed": true,
          "internalType": "uint256",
          "name": "tokenId",
          "type": "uint256"
        }
      ],
      "name": "Transfer",
      "type": "event"
    },
    {
      "inputs": [
        {
          "internalType": "address",
          "name": "to",
          "type": "address"
        },
        {
          "internalType": "uint256",
          "name": "tokenId",
          "type": "uint256"
        }
      ],
      "name": "approve",
      "outputs": [],
      "stateMutability": "nonpayable",
      "type": "function"
    },
    {
      "inputs": [
        {
          "internalType": "address",
          "name": "owner",
          "type": "address"
        }
      ],
      "name": "balanceOf",
      "outputs": [
        {
          "internalType": "uint256",
          "name": "",
          "type": "uint256"
        }
      ],
      "stateMutability": "view",
      "type": "function"
    },
    {
      "inputs": [
        {
          "internalType": "uint256",
          "name": "tokenId",
          "type": "uint256"
        }
      ],
      "name": "getApproved",
      "outputs": [
        {
          "internalType": "address",
          "name": "",
          "type": "address"
        }
      ],
      "stateMutability": "view",
      "type": "function"
    },
    {
      "inputs": [],
      "name": "getNFTInfo",
      "outputs": [],
      "stateMutability": "nonpayable",
      "type": "function"
    },
    {
      "inputs": [
        {
          "internalType": "address",
          "name": "owner",
          "type": "address"
        },
        {
          "internalType": "address",
          "name": "operator",
          "type": "address"
        }
      ],
      "name": "isApprovedForAll",
      "outputs": [
        {
          "internalType": "bool",
          "name": "",
          "type": "bool"
        }
      ],
      "stateMutability": "view",
      "type": "function"
    },
    {
      "inputs": [
        {
          "internalType": "address",
          "name": "",
          "type": "address"
        }
      ],
      "name": "lastMintAt",
      "outputs": [
        {
          "internalType": "uint256",
          "name": "",
          "type": "uint256"
        }
      ],
      "stateMutability": "view",
      "type": "function"
    },
    {
      "inputs": [],
      "name": "makeAnEpicNFT",
      "outputs": [],
      "stateMutability": "nonpayable",
      "type": "function"
    },
    {
      "inputs": [],
      "name": "name",
      "outputs": [
        {
          "internalType": "string",
          "name": "",
          "type": "string"
        }
      ],
      "stateMutability": "view",
      "type": "function"
    },
    {
      "inputs": [
        {
          "internalType": "uint256",
          "name": "tokenId",
          "type": "uint256"
        }
      ],
      "name": "ownerOf",
      "outputs": [
        {
          "internalType": "address",
          "name": "",
          "type": "address"
        }
      ],
      "stateMutability": "view",
      "type": "function"
    },
    {
      "inputs": [
        {
          "internalType": "uint256",
          "name": "tokenId",
          "type": "uint256"
        }
      ],
      "name": "pickRandomBgColor",
      "outputs": [
        {
          "internalType": "string",
          "name": "",
          "type": "string"
        }
      ],
      "stateMutability": "view",
      "type": "function"
    },
    {
      "inputs": [
        {
          "internalType": "uint256",
          "name": "tokenId",
          "type": "uint256"
        }
      ],
      "name": "pickRandomFirstWord",
      "outputs": [
        {
          "internalType": "string",
          "name": "",
          "type": "string"
        }
      ],
      "stateMutability": "view",
      "type": "function"
    },
    {
      "inputs": [
        {
          "internalType": "uint256",
          "name": "tokenId",
          "type": "uint256"
        }
      ],
      "name": "pickRandomFontFamily",
      "outputs": [
        {
          "internalType": "string",
          "name": "",
          "type": "string"
        }
      ],
      "stateMutability": "view",
      "type": "function"
    },
    {
      "inputs": [
        {
          "internalType": "uint256",
          "name": "tokenId",
          "type": "uint256"
        }
      ],
      "name": "pickRandomSecondWord",
      "outputs": [
        {
          "internalType": "string",
          "name": "",
          "type": "string"
        }
      ],
      "stateMutability": "view",
      "type": "function"
    },
    {
      "inputs": [
        {
          "internalType": "uint256",
          "name": "tokenId",
          "type": "uint256"
        }
      ],
      "name": "pickRandomThirdWord",
      "outputs": [
        {
          "internalType": "string",
          "name": "",
          "type": "string"
        }
      ],
      "stateMutability": "view",
      "type": "function"
    },
    {
      "inputs": [
        {
          "internalType": "address",
          "name": "from",
          "type": "address"
        },
        {
          "internalType": "address",
          "name": "to",
          "type": "address"
        },
        {
          "internalType": "uint256",
          "name": "tokenId",
          "type": "uint256"
        }
      ],
      "name": "safeTransferFrom",
      "outputs": [],
      "stateMutability": "nonpayable",
      "type": "function"
    },
    {
      "inputs": [
        {
          "internalType": "address",
          "name": "from",
          "type": "address"
        },
        {
          "internalType": "address",
          "name": "to",
          "type": "address"
        },
        {
          "internalType": "uint256",
          "name": "tokenId",
          "type": "uint256"
        },
        {
          "internalType": "bytes",
          "name": "_data",
          "type": "bytes"
        }
      ],
      "name": "safeTransferFrom",
      "outputs": [],
      "stateMutability": "nonpayable",
      "type": "function"
    },
    {
      "inputs": [
        {
          "internalType": "address",
          "name": "operator",
          "type": "address"
        },
        {
          "internalType": "bool",
          "name": "approved",
          "type": "bool"
        }
      ],
      "name": "setApprovalForAll",
      "outputs": [],
      "stateMutability": "nonpayable",
      "type": "function"
    },
    {
      "inputs": [
        {
          "internalType": "bytes4",
          "name": "interfaceId",
          "type": "bytes4"
        }
      ],
      "name": "supportsInterface",
      "outputs": [
        {
          "internalType": "bool",
          "name": "",
          "type": "bool"
        }
      ],
      "stateMutability": "view",
      "type": "function"
    },
    {
      "inputs": [],
      "name": "symbol",
      "outputs": [
        {
          "internalType": "string",
          "name": "",
          "type": "string"
        }
      ],
      "stateMutability": "view",
      "type": "function"
    },
    {
      "inputs": [
        {
          "internalType": "uint256",
          "name": "tokenId",
          "type": "uint256"
        }
      ],
      "name": "tokenURI",
      "outputs": [
        {
          "internalType": "string",
          "name": "",
          "type": "string"
        }
      ],
      "stateMutability": "view",
      "type": "function"
    },
    {
      "inputs": [
        {
          "internalType": "address",
          "name": "from",
          "type": "address"
        },
        {
          "internalType": "address",
          "name": "to",
          "type": "address"
        },
        {
          "internalType": "uint256",
          "name": "tokenId",
          "type": "uint256"
        }
      ],
      "name": "transferFrom",
      "outputs": [],
      "stateMutability": "nonpayable",
      "type": "function"
    }
  ],
  "bytecode": "0x6080604052603260075560006008556040518060c00160405280608a815260200162004dd9608a9139600a90805190602001906200003f92919062000a04565b5060405180608001604052806043815260200162004e6360439139600b90805190602001906200007192919062000a04565b5060405180608001604052806056815260200162004ec860569139600c9080519060200190620000a392919062000a04565b506040518060c001604052806040518060400160405280600d81526020017f436f6d69632053616e73204d530000000000000000000000000000000000000081525081526020016040518060400160405280600b81526020017f436f70706572706c61746500000000000000000000000000000000000000000081525081526020016040518060400160405280600581526020017f736572696600000000000000000000000000000000000000000000000000000081525081526020016040518060400160405280600781526020017f506170797275730000000000000000000000000000000000000000000000000081525081526020016040518060400160405280600681526020017f496d70616374000000000000000000000000000000000000000000000000000081525081526020016040518060400160405280600881526020017f43686172636f616c000000000000000000000000000000000000000000000000815250815250600e9060066200022192919062000a95565b506040518060c001604052806040518060400160405280600581526020017f426c61636b00000000000000000000000000000000000000000000000000000081525081526020016040518060400160405280600481526020017f426c75650000000000000000000000000000000000000000000000000000000081525081526020016040518060400160405280600481526020017f50696e6b0000000000000000000000000000000000000000000000000000000081525081526020016040518060400160405280600681526020017f507572706c65000000000000000000000000000000000000000000000000000081525081526020016040518060400160405280600381526020017f526564000000000000000000000000000000000000000000000000000000000081525081526020016040518060400160405280600581526020017f477265656e000000000000000000000000000000000000000000000000000000815250815250600f9060066200039f92919062000a95565b506040518060c001604052806040518060400160405280600481526020017f4461726b0000000000000000000000000000000000000000000000000000000081525081526020016040518060400160405280600581526020017f477265617400000000000000000000000000000000000000000000000000000081525081526020016040518060400160405280600581526020017f46756e6e7900000000000000000000000000000000000000000000000000000081525081526020016040518060400160405280600681526020017f5374726f6e67000000000000000000000000000000000000000000000000000081525081526020016040518060400160405280600781526020017f426164646573740000000000000000000000000000000000000000000000000081525081526020016040518060400160405280600681526020017f47616c617879000000000000000000000000000000000000000000000000000081525081525060109060066200051d92919062000a95565b506040518060c001604052806040518060400160405280600481526020017f4d6973740000000000000000000000000000000000000000000000000000000081525081526020016040518060400160405280600481526020017f466972650000000000000000000000000000000000000000000000000000000081525081526020016040518060400160405280600581526020017f4c6967687400000000000000000000000000000000000000000000000000000081525081526020016040518060400160405280600381526020017f496365000000000000000000000000000000000000000000000000000000000081525081526020016040518060400160405280600581526020017f456172746800000000000000000000000000000000000000000000000000000081525081526020016040518060400160405280600781526020017f5468756e6465720000000000000000000000000000000000000000000000000081525081525060119060066200069b92919062000a95565b506040518060e001604052806040518060400160405280600781526020017f4d6f6e737465720000000000000000000000000000000000000000000000000081525081526020016040518060400160405280600681526020017f447261676f6e000000000000000000000000000000000000000000000000000081525081526020016040518060400160405280600781526020017f4e6f6f646c65730000000000000000000000000000000000000000000000000081525081526020016040518060400160405280600581526020017f416e676c6500000000000000000000000000000000000000000000000000000081525081526020016040518060400160405280600381526020017f4d616e000000000000000000000000000000000000000000000000000000000081525081526020016040518060400160405280600581526020017f576f6d656e00000000000000000000000000000000000000000000000000000081525081526020016040518060400160405280600481526020017f576f6c660000000000000000000000000000000000000000000000000000000081525081525060129060076200085492919062000afc565b503480156200086257600080fd5b506040518060400160405280600981526020017f5371756172654e465400000000000000000000000000000000000000000000008152506040518060400160405280600681526020017f53515541524500000000000000000000000000000000000000000000000000008152508160009080519060200190620008e792919062000a04565b5080600190805190602001906200090092919062000a04565b5050506200093260405180606001604052806022815260200162004ea6602291396200093860201b620015761760201c565b62000d1d565b620009d8816040516024016200094f919062000c31565b6040516020818303038152906040527f41304fac000000000000000000000000000000000000000000000000000000007bffffffffffffffffffffffffffffffffffffffffffffffffffffffff19166020820180517bffffffffffffffffffffffffffffffffffffffffffffffffffffffff8381831617835250505050620009db60201b60201c565b50565b60008151905060006a636f6e736f6c652e6c6f679050602083016000808483855afa5050505050565b82805462000a129062000ca7565b90600052602060002090601f01602090048101928262000a36576000855562000a82565b82601f1062000a5157805160ff191683800117855562000a82565b8280016001018555821562000a82579182015b8281111562000a8157825182559160200191906001019062000a64565b5b50905062000a91919062000b63565b5090565b82805482825590600052602060002090810192821562000ae9579160200282015b8281111562000ae857825182908051906020019062000ad792919062000a04565b509160200191906001019062000ab6565b5b50905062000af8919062000b82565b5090565b82805482825590600052602060002090810192821562000b50579160200282015b8281111562000b4f57825182908051906020019062000b3e92919062000a04565b509160200191906001019062000b1d565b5b50905062000b5f919062000b82565b5090565b5b8082111562000b7e57600081600090555060010162000b64565b5090565b5b8082111562000ba6576000818162000b9c919062000baa565b5060010162000b83565b5090565b50805462000bb89062000ca7565b6000825580601f1062000bcc575062000bed565b601f01602090049060005260206000209081019062000bec919062000b63565b5b50565b600062000bfd8262000c55565b62000c09818562000c60565b935062000c1b81856020860162000c71565b62000c268162000d0c565b840191505092915050565b6000602082019050818103600083015262000c4d818462000bf0565b905092915050565b600081519050919050565b600082825260208201905092915050565b60005b8381101562000c9157808201518184015260208101905062000c74565b8381111562000ca1576000848401525b50505050565b6000600282049050600182168062000cc057607f821691505b6020821081141562000cd75762000cd662000cdd565b5b50919050565b7f4e487b7100000000000000000000000000000000000000000000000000000000600052602260045260246000fd5b6000601f19601f8301169050919050565b6140ac8062000d2d6000396000f3fe608060405234801561001057600080fd5b50600436106101375760003560e01c80636352211e116100b8578063b88d4fde1161007c578063b88d4fde14610372578063c575757a1461038e578063c87b56dd146103be578063ce26da10146103ee578063de9d132f1461041e578063e985e9c51461042857610137565b80636352211e146102a857806370a08231146102d857806395d89b4114610308578063a22cb46514610326578063b187301f1461034257610137565b80632de38d68116100ff5780632de38d68146101f2578063384c40ba14610222578063427cec451461025257806342842e0e146102825780634d21e0191461029e57610137565b806301ffc9a71461013c57806306fdde031461016c578063081812fc1461018a578063095ea7b3146101ba57806323b872dd146101d6575b600080fd5b61015660048036038101906101519190612983565b610458565b6040516101639190613191565b60405180910390f35b61017461053a565b60405161018191906131ac565b60405180910390f35b6101a4600480360381019061019f91906129d5565b6105cc565b6040516101b19190613101565b60405180910390f35b6101d460048036038101906101cf9190612947565b610651565b005b6101f060048036038101906101eb9190612841565b610769565b005b61020c600480360381019061020791906129d5565b6107c9565b60405161021991906131ac565b60405180910390f35b61023c600480360381019061023791906127dc565b6108e7565b604051610249919061344c565b60405180910390f35b61026c600480360381019061026791906129d5565b6108ff565b60405161027991906131ac565b60405180910390f35b61029c60048036038101906102979190612841565b610a1d565b005b6102a6610a3d565b005b6102c260048036038101906102bd91906129d5565b610a7c565b6040516102cf9190613101565b60405180910390f35b6102f260048036038101906102ed91906127dc565b610b2e565b6040516102ff919061344c565b60405180910390f35b610310610be6565b60405161031d91906131ac565b60405180910390f35b610340600480360381019061033b919061290b565b610c78565b005b61035c600480360381019061035791906129d5565b610c8e565b60405161036991906131ac565b60405180910390f35b61038c60048036038101906103879190612890565b610dac565b005b6103a860048036038101906103a391906129d5565b610e0e565b6040516103b591906131ac565b60405180910390f35b6103d860048036038101906103d391906129d5565b610f2c565b6040516103e591906131ac565b60405180910390f35b610408600480360381019061040391906129d5565b61107e565b60405161041591906131ac565b60405180910390f35b61042661119c565b005b610442600480360381019061043d9190612805565b6114e2565b60405161044f9190613191565b60405180910390f35b60007f80ac58cd000000000000000000000000000000000000000000000000000000007bffffffffffffffffffffffffffffffffffffffffffffffffffffffff1916827bffffffffffffffffffffffffffffffffffffffffffffffffffffffff1916148061052357507f5b5e139f000000000000000000000000000000000000000000000000000000007bffffffffffffffffffffffffffffffffffffffffffffffffffffffff1916827bffffffffffffffffffffffffffffffffffffffffffffffffffffffff1916145b8061053357506105328261160f565b5b9050919050565b60606000805461054990613709565b80601f016020809104026020016040519081016040528092919081815260200182805461057590613709565b80156105c25780601f10610597576101008083540402835291602001916105c2565b820191906000526020600020905b8154815290600101906020018083116105a557829003601f168201915b5050505050905090565b60006105d782611679565b610616576040517f08c379a000000000000000000000000000000000000000000000000000000000815260040161060d906133ac565b60405180910390fd5b6004600083815260200190815260200160002060009054906101000a900473ffffffffffffffffffffffffffffffffffffffff169050919050565b600061065c82610a7c565b90508073ffffffffffffffffffffffffffffffffffffffff168373ffffffffffffffffffffffffffffffffffffffff1614156106cd576040517f08c379a00000000000000000000000000000000000000000000000000000000081526004016106c4906133ec565b60405180910390fd5b8073ffffffffffffffffffffffffffffffffffffffff166106ec6116e5565b73ffffffffffffffffffffffffffffffffffffffff16148061071b575061071a816107156116e5565b6114e2565b5b61075a576040517f08c379a0000000000000000000000000000000000000000000000000000000008152600401610751906132ec565b60405180910390fd5b61076483836116ed565b505050565b61077a6107746116e5565b826117a6565b6107b9576040517f08c379a00000000000000000000000000000000000000000000000000000000081526004016107b09061340c565b60405180910390fd5b6107c4838383611884565b505050565b606060006107fd6107d984611aeb565b6040516020016107e991906130bd565b604051602081830303815290604052611c98565b90506010805490508161081091906137b5565b90506010818154811061084c577f4e487b7100000000000000000000000000000000000000000000000000000000600052603260045260246000fd5b90600052602060002001805461086190613709565b80601f016020809104026020016040519081016040528092919081815260200182805461088d90613709565b80156108da5780601f106108af576101008083540402835291602001916108da565b820191906000526020600020905b8154815290600101906020018083116108bd57829003601f168201915b5050505050915050919050565b600d6020528060005260406000206000915090505481565b6060600061093361090f84611aeb565b60405160200161091f9190613056565b604051602081830303815290604052611c98565b9050600f805490508161094691906137b5565b9050600f8181548110610982577f4e487b7100000000000000000000000000000000000000000000000000000000600052603260045260246000fd5b90600052602060002001805461099790613709565b80601f01602080910402602001604051908101604052809291908181526020018280546109c390613709565b8015610a105780601f106109e557610100808354040283529160200191610a10565b820191906000526020600020905b8154815290600101906020018083116109f357829003601f168201915b5050505050915050919050565b610a3883838360405180602001604052806000815250610dac565b505050565b7f41deadfc504019bfcc781035ac7df7f9839cdc958fac7e95a3e495c65c87500c600754600854604051610a72929190613467565b60405180910390a1565b6000806002600084815260200190815260200160002060009054906101000a900473ffffffffffffffffffffffffffffffffffffffff169050600073ffffffffffffffffffffffffffffffffffffffff168173ffffffffffffffffffffffffffffffffffffffff161415610b25576040517f08c379a0000000000000000000000000000000000000000000000000000000008152600401610b1c9061332c565b60405180910390fd5b80915050919050565b60008073ffffffffffffffffffffffffffffffffffffffff168273ffffffffffffffffffffffffffffffffffffffff161415610b9f576040517f08c379a0000000000000000000000000000000000000000000000000000000008152600401610b969061330c565b60405180910390fd5b600360008373ffffffffffffffffffffffffffffffffffffffff1673ffffffffffffffffffffffffffffffffffffffff168152602001908152602001600020549050919050565b606060018054610bf590613709565b80601f0160208091040260200160405190810160405280929190818152602001828054610c2190613709565b8015610c6e5780601f10610c4357610100808354040283529160200191610c6e565b820191906000526020600020905b815481529060010190602001808311610c5157829003601f168201915b5050505050905090565b610c8a610c836116e5565b8383611ccb565b5050565b60606000610cc2610c9e84611aeb565b604051602001610cae9190613034565b604051602081830303815290604052611c98565b905060118054905081610cd591906137b5565b905060118181548110610d11577f4e487b7100000000000000000000000000000000000000000000000000000000600052603260045260246000fd5b906000526020600020018054610d2690613709565b80601f0160208091040260200160405190810160405280929190818152602001828054610d5290613709565b8015610d9f5780601f10610d7457610100808354040283529160200191610d9f565b820191906000526020600020905b815481529060010190602001808311610d8257829003601f168201915b5050505050915050919050565b610dbd610db76116e5565b836117a6565b610dfc576040517f08c379a0000000000000000000000000000000000000000000000000000000008152600401610df39061340c565b60405180910390fd5b610e0884848484611e38565b50505050565b60606000610e42610e1e84611aeb565b604051602001610e2e9190612ff0565b604051602081830303815290604052611c98565b905060128054905081610e5591906137b5565b905060128181548110610e91577f4e487b7100000000000000000000000000000000000000000000000000000000600052603260045260246000fd5b906000526020600020018054610ea690613709565b80601f0160208091040260200160405190810160405280929190818152602001828054610ed290613709565b8015610f1f5780601f10610ef457610100808354040283529160200191610f1f565b820191906000526020600020905b815481529060010190602001808311610f0257829003601f168201915b5050505050915050919050565b6060610f3782611679565b610f76576040517f08c379a0000000000000000000000000000000000000000000000000000000008152600401610f6d9061338c565b60405180910390fd5b6000600660008481526020019081526020016000208054610f9690613709565b80601f0160208091040260200160405190810160405280929190818152602001828054610fc290613709565b801561100f5780601f10610fe45761010080835404028352916020019161100f565b820191906000526020600020905b815481529060010190602001808311610ff257829003601f168201915b505050505090506000611020611e94565b9050600081511415611036578192505050611079565b60008251111561106b578082604051602001611053929190612f38565b60405160208183030381529060405292505050611079565b61107484611eab565b925050505b919050565b606060006110b261108e84611aeb565b60405160200161109e9190613012565b604051602081830303815290604052611c98565b9050600e80549050816110c591906137b5565b9050600e8181548110611101577f4e487b7100000000000000000000000000000000000000000000000000000000600052603260045260246000fd5b90600052602060002001805461111690613709565b80601f016020809104026020016040519081016040528092919081815260200182805461114290613709565b801561118f5780601f106111645761010080835404028352916020019161118f565b820191906000526020600020905b81548152906001019060200180831161117257829003601f168201915b5050505050915050919050565b600754600854106111e2576040517f08c379a00000000000000000000000000000000000000000000000000000000081526004016111d99061322c565b60405180910390fd5b42603c600d60003373ffffffffffffffffffffffffffffffffffffffff1673ffffffffffffffffffffffffffffffffffffffff1681526020019081526020016000205461122f919061353e565b1061126f576040517f08c379a00000000000000000000000000000000000000000000000000000000081526004016112669061342c565b60405180910390fd5b42600d60003373ffffffffffffffffffffffffffffffffffffffff1673ffffffffffffffffffffffffffffffffffffffff1681526020019081526020016000208190555060006112bf6009611f52565b90506001600860008282546112d4919061353e565b9250508190555060006112e6826107c9565b905060006112f383610c8e565b9050600061130084610e0e565b9050600061130d856108ff565b9050600061131a8661107e565b9050600085858560405160200161133393929190612f5c565b60405160208183030381529060405290506000600a83600b86600c8660405160200161136496959493929190612f8d565b604051602081830303815290604052905060006113a98361138484611f60565b604051602001611395929190613078565b604051602081830303815290604052611f60565b90506000816040516020016113be91906130df565b604051602081830303815290604052905061140d6040518060400160405280601581526020017f0a2d2d2d2d2d2d2d2d2d2d2d2d2d2d2d2d2d2d2d2d0000000000000000000000815250611576565b61141681611576565b6114546040518060400160405280601581526020017f2d2d2d2d2d2d2d2d2d2d2d2d2d2d2d2d2d2d2d2d0a0000000000000000000000815250611576565b61145e338b6120ff565b6114688a8261211d565b6114726009612191565b611495604051806060016040528060258152602001614012602591398b336121a7565b7febb98688741ffa4c7589bf325de30cf7becb63de567842e1ccdb6cb949fdc82c338b6040516114c6929190613168565b60405180910390a16114d6610a3d565b50505050505050505050565b6000600560008473ffffffffffffffffffffffffffffffffffffffff1673ffffffffffffffffffffffffffffffffffffffff16815260200190815260200160002060008373ffffffffffffffffffffffffffffffffffffffff1673ffffffffffffffffffffffffffffffffffffffff16815260200190815260200160002060009054906101000a900460ff16905092915050565b61160c8160405160240161158a91906131ac565b6040516020818303038152906040527f41304fac000000000000000000000000000000000000000000000000000000007bffffffffffffffffffffffffffffffffffffffffffffffffffffffff19166020820180517bffffffffffffffffffffffffffffffffffffffffffffffffffffffff8381831617835250505050612246565b50565b60007f01ffc9a7000000000000000000000000000000000000000000000000000000007bffffffffffffffffffffffffffffffffffffffffffffffffffffffff1916827bffffffffffffffffffffffffffffffffffffffffffffffffffffffff1916149050919050565b60008073ffffffffffffffffffffffffffffffffffffffff166002600084815260200190815260200160002060009054906101000a900473ffffffffffffffffffffffffffffffffffffffff1673ffffffffffffffffffffffffffffffffffffffff1614159050919050565b600033905090565b816004600083815260200190815260200160002060006101000a81548173ffffffffffffffffffffffffffffffffffffffff021916908373ffffffffffffffffffffffffffffffffffffffff160217905550808273ffffffffffffffffffffffffffffffffffffffff1661176083610a7c565b73ffffffffffffffffffffffffffffffffffffffff167f8c5be1e5ebec7d5bd14f71427d1e84f3dd0314c0f7b2291e5b200ac8c7c3b92560405160405180910390a45050565b60006117b182611679565b6117f0576040517f08c379a00000000000000000000000000000000000000000000000000000000081526004016117e7906132cc565b60405180910390fd5b60006117fb83610a7c565b90508073ffffffffffffffffffffffffffffffffffffffff168473ffffffffffffffffffffffffffffffffffffffff16148061183d575061183c81856114e2565b5b8061187b57508373ffffffffffffffffffffffffffffffffffffffff16611863846105cc565b73ffffffffffffffffffffffffffffffffffffffff16145b91505092915050565b8273ffffffffffffffffffffffffffffffffffffffff166118a482610a7c565b73ffffffffffffffffffffffffffffffffffffffff16146118fa576040517f08c379a00000000000000000000000000000000000000000000000000000000081526004016118f19061324c565b60405180910390fd5b600073ffffffffffffffffffffffffffffffffffffffff168273ffffffffffffffffffffffffffffffffffffffff16141561196a576040517f08c379a00000000000000000000000000000000000000000000000000000000081526004016119619061328c565b60405180910390fd5b61197583838361226f565b6119806000826116ed565b6001600360008573ffffffffffffffffffffffffffffffffffffffff1673ffffffffffffffffffffffffffffffffffffffff16815260200190815260200160002060008282546119d0919061361f565b925050819055506001600360008473ffffffffffffffffffffffffffffffffffffffff1673ffffffffffffffffffffffffffffffffffffffff1681526020019081526020016000206000828254611a27919061353e565b92505081905550816002600083815260200190815260200160002060006101000a81548173ffffffffffffffffffffffffffffffffffffffff021916908373ffffffffffffffffffffffffffffffffffffffff160217905550808273ffffffffffffffffffffffffffffffffffffffff168473ffffffffffffffffffffffffffffffffffffffff167fddf252ad1be2c89b69c2b068fc378daa952ba7f163c4a11628f55a4df523b3ef60405160405180910390a4611ae6838383612274565b505050565b60606000821415611b33576040518060400160405280600181526020017f30000000000000000000000000000000000000000000000000000000000000008152509050611c93565b600082905060005b60008214611b65578080611b4e9061376c565b915050600a82611b5e9190613594565b9150611b3b565b60008167ffffffffffffffff811115611ba7577f4e487b7100000000000000000000000000000000000000000000000000000000600052604160045260246000fd5b6040519080825280601f01601f191660200182016040528015611bd95781602001600182028036833780820191505090505b5090505b60008514611c8c57600182611bf2919061361f565b9150600a85611c0191906137b5565b6030611c0d919061353e565b60f81b818381518110611c49577f4e487b7100000000000000000000000000000000000000000000000000000000600052603260045260246000fd5b60200101907effffffffffffffffffffffffffffffffffffffffffffffffffffffffffffff1916908160001a905350600a85611c859190613594565b9450611bdd565b8093505050505b919050565b600081604051602001611cab9190612f21565b6040516020818303038152906040528051906020012060001c9050919050565b8173ffffffffffffffffffffffffffffffffffffffff168373ffffffffffffffffffffffffffffffffffffffff161415611d3a576040517f08c379a0000000000000000000000000000000000000000000000000000000008152600401611d31906132ac565b60405180910390fd5b80600560008573ffffffffffffffffffffffffffffffffffffffff1673ffffffffffffffffffffffffffffffffffffffff16815260200190815260200160002060008473ffffffffffffffffffffffffffffffffffffffff1673ffffffffffffffffffffffffffffffffffffffff16815260200190815260200160002060006101000a81548160ff0219169083151502179055508173ffffffffffffffffffffffffffffffffffffffff168373ffffffffffffffffffffffffffffffffffffffff167f17307eab39ab6107e8899845ad3d59bd9653f200f220920489ca2b5937696c3183604051611e2b9190613191565b60405180910390a3505050565b611e43848484611884565b611e4f84848484612279565b611e8e576040517f08c379a0000000000000000000000000000000000000000000000000000000008152600401611e859061320c565b60405180910390fd5b50505050565b606060405180602001604052806000815250905090565b6060611eb682611679565b611ef5576040517f08c379a0000000000000000000000000000000000000000000000000000000008152600401611eec906133cc565b60405180910390fd5b6000611eff611e94565b90506000815111611f1f5760405180602001604052806000815250611f4a565b80611f2984611aeb565b604051602001611f3a929190612f38565b6040516020818303038152906040525b915050919050565b600081600001549050919050565b6060600082511415611f83576040518060200160405280600081525090506120fa565b60006040518060600160405280604081526020016140376040913990506000600360028551611fb2919061353e565b611fbc9190613594565b6004611fc891906135c5565b90506000602082611fd9919061353e565b67ffffffffffffffff811115612018577f4e487b7100000000000000000000000000000000000000000000000000000000600052604160045260246000fd5b6040519080825280601f01601f19166020018201604052801561204a5781602001600182028036833780820191505090505b509050818152600183018586518101602084015b818310156120b9576003830192508251603f8160121c168501518253600182019150603f81600c1c168501518253600182019150603f8160061c168501518253600182019150603f811685015182536001820191505061205e565b6003895106600181146120d357600281146120e3576120ee565b613d3d60f01b60028303526120ee565b603d60f81b60018303525b50505050508093505050505b919050565b612119828260405180602001604052806000815250612410565b5050565b61212682611679565b612165576040517f08c379a000000000000000000000000000000000000000000000000000000000815260040161215c9061334c565b60405180910390fd5b8060066000848152602001908152602001600020908051906020019061218c929190612668565b505050565b6001816000016000828254019250508190555050565b6122418383836040516024016121bf939291906131ce565b6040516020818303038152906040527fe3849f79000000000000000000000000000000000000000000000000000000007bffffffffffffffffffffffffffffffffffffffffffffffffffffffff19166020820180517bffffffffffffffffffffffffffffffffffffffffffffffffffffffff8381831617835250505050612246565b505050565b60008151905060006a636f6e736f6c652e6c6f679050602083016000808483855afa5050505050565b505050565b505050565b600061229a8473ffffffffffffffffffffffffffffffffffffffff1661246b565b15612403578373ffffffffffffffffffffffffffffffffffffffff1663150b7a026122c36116e5565b8786866040518563ffffffff1660e01b81526004016122e5949392919061311c565b602060405180830381600087803b1580156122ff57600080fd5b505af192505050801561233057506040513d601f19601f8201168201806040525081019061232d91906129ac565b60015b6123b3573d8060008114612360576040519150601f19603f3d011682016040523d82523d6000602084013e612365565b606091505b506000815114156123ab576040517f08c379a00000000000000000000000000000000000000000000000000000000081526004016123a29061320c565b60405180910390fd5b805181602001fd5b63150b7a0260e01b7bffffffffffffffffffffffffffffffffffffffffffffffffffffffff1916817bffffffffffffffffffffffffffffffffffffffffffffffffffffffff191614915050612408565b600190505b949350505050565b61241a838361248e565b6124276000848484612279565b612466576040517f08c379a000000000000000000000000000000000000000000000000000000000815260040161245d9061320c565b60405180910390fd5b505050565b6000808273ffffffffffffffffffffffffffffffffffffffff163b119050919050565b600073ffffffffffffffffffffffffffffffffffffffff168273ffffffffffffffffffffffffffffffffffffffff1614156124fe576040517f08c379a00000000000000000000000000000000000000000000000000000000081526004016124f59061336c565b60405180910390fd5b61250781611679565b15612547576040517f08c379a000000000000000000000000000000000000000000000000000000000815260040161253e9061326c565b60405180910390fd5b6125536000838361226f565b6001600360008473ffffffffffffffffffffffffffffffffffffffff1673ffffffffffffffffffffffffffffffffffffffff16815260200190815260200160002060008282546125a3919061353e565b92505081905550816002600083815260200190815260200160002060006101000a81548173ffffffffffffffffffffffffffffffffffffffff021916908373ffffffffffffffffffffffffffffffffffffffff160217905550808273ffffffffffffffffffffffffffffffffffffffff16600073ffffffffffffffffffffffffffffffffffffffff167fddf252ad1be2c89b69c2b068fc378daa952ba7f163c4a11628f55a4df523b3ef60405160405180910390a461266460008383612274565b5050565b82805461267490613709565b90600052602060002090601f01602090048101928261269657600085556126dd565b82601f106126af57805160ff19168380011785556126dd565b828001600101855582156126dd579182015b828111156126dc5782518255916020019190600101906126c1565b5b5090506126ea91906126ee565b5090565b5b808211156127075760008160009055506001016126ef565b5090565b600061271e612719846134b5565b613490565b90508281526020810184848401111561273657600080fd5b6127418482856136c7565b509392505050565b60008135905061275881613fb5565b92915050565b60008135905061276d81613fcc565b92915050565b60008135905061278281613fe3565b92915050565b60008151905061279781613fe3565b92915050565b600082601f8301126127ae57600080fd5b81356127be84826020860161270b565b91505092915050565b6000813590506127d681613ffa565b92915050565b6000602082840312156127ee57600080fd5b60006127fc84828501612749565b91505092915050565b6000806040838503121561281857600080fd5b600061282685828601612749565b925050602061283785828601612749565b9150509250929050565b60008060006060848603121561285657600080fd5b600061286486828701612749565b935050602061287586828701612749565b9250506040612886868287016127c7565b9150509250925092565b600080600080608085870312156128a657600080fd5b60006128b487828801612749565b94505060206128c587828801612749565b93505060406128d6878288016127c7565b925050606085013567ffffffffffffffff8111156128f357600080fd5b6128ff8782880161279d565b91505092959194509250565b6000806040838503121561291e57600080fd5b600061292c85828601612749565b925050602061293d8582860161275e565b9150509250929050565b6000806040838503121561295a57600080fd5b600061296885828601612749565b9250506020612979858286016127c7565b9150509250929050565b60006020828403121561299557600080fd5b60006129a384828501612773565b91505092915050565b6000602082840312156129be57600080fd5b60006129cc84828501612788565b91505092915050565b6000602082840312156129e757600080fd5b60006129f5848285016127c7565b91505092915050565b612a0781613653565b82525050565b612a1681613665565b82525050565b6000612a27826134fb565b612a318185613511565b9350612a418185602086016136d6565b612a4a816138a2565b840191505092915050565b6000612a6082613506565b612a6a8185613522565b9350612a7a8185602086016136d6565b612a83816138a2565b840191505092915050565b6000612a9982613506565b612aa38185613533565b9350612ab38185602086016136d6565b80840191505092915050565b60008154612acc81613709565b612ad68186613533565b94506001821660008114612af15760018114612b0257612b35565b60ff19831686528186019350612b35565b612b0b856134e6565b60005b83811015612b2d57815481890152600182019150602081019050612b0e565b838801955050505b50505092915050565b6000612b4b603283613522565b9150612b56826138b3565b604082019050919050565b6000612b6e602983613522565b9150612b7982613902565b604082019050919050565b6000612b91602583613522565b9150612b9c82613951565b604082019050919050565b6000612bb4601c83613522565b9150612bbf826139a0565b602082019050919050565b6000612bd7600a83613533565b9150612be2826139c9565b600a82019050919050565b6000612bfa600b83613533565b9150612c05826139f2565b600b82019050919050565b6000612c1d602483613522565b9150612c2882613a1b565b604082019050919050565b6000612c40601983613522565b9150612c4b82613a6a565b602082019050919050565b6000612c63606383613533565b9150612c6e82613a93565b606382019050919050565b6000612c86600b83613533565b9150612c9182613b2e565b600b82019050919050565b6000612ca9602c83613522565b9150612cb482613b57565b604082019050919050565b6000612ccc600d83613533565b9150612cd782613ba6565b600d82019050919050565b6000612cef603883613522565b9150612cfa82613bcf565b604082019050919050565b6000612d12602a83613522565b9150612d1d82613c1e565b604082019050919050565b6000612d35602983613522565b9150612d4082613c6d565b604082019050919050565b6000612d58602e83613522565b9150612d6382613cbc565b604082019050919050565b6000612d7b600283613533565b9150612d8682613d0b565b600282019050919050565b6000612d9e602083613522565b9150612da982613d34565b602082019050919050565b6000612dc1603183613522565b9150612dcc82613d5d565b604082019050919050565b6000612de4602c83613522565b9150612def82613dac565b604082019050919050565b6000612e07600883613533565b9150612e1282613dfb565b600882019050919050565b6000612e2a602f83613522565b9150612e3582613e24565b604082019050919050565b6000612e4d600a83613533565b9150612e5882613e73565b600a82019050919050565b6000612e70602183613522565b9150612e7b82613e9c565b604082019050919050565b6000612e93600a83613533565b9150612e9e82613eeb565b600a82019050919050565b6000612eb6601d83613533565b9150612ec182613f14565b601d82019050919050565b6000612ed9603183613522565b9150612ee482613f3d565b604082019050919050565b6000612efc602083613522565b9150612f0782613f8c565b602082019050919050565b612f1b816136bd565b82525050565b6000612f2d8284612a8e565b915081905092915050565b6000612f448285612a8e565b9150612f508284612a8e565b91508190509392505050565b6000612f688286612a8e565b9150612f748285612a8e565b9150612f808284612a8e565b9150819050949350505050565b6000612f998289612abf565b9150612fa58288612a8e565b9150612fb18287612abf565b9150612fbd8286612a8e565b9150612fc98285612abf565b9150612fd58284612a8e565b9150612fe082612cbf565b9150819050979650505050505050565b6000612ffb82612bca565b91506130078284612a8e565b915081905092915050565b600061301d82612bed565b91506130298284612a8e565b915081905092915050565b600061303f82612c79565b915061304b8284612a8e565b915081905092915050565b600061306182612dfa565b915061306d8284612a8e565b915081905092915050565b600061308382612e40565b915061308f8285612a8e565b915061309a82612c56565b91506130a68284612a8e565b91506130b182612d6e565b91508190509392505050565b60006130c882612e86565b91506130d48284612a8e565b915081905092915050565b60006130ea82612ea9565b91506130f68284612a8e565b915081905092915050565b600060208201905061311660008301846129fe565b92915050565b600060808201905061313160008301876129fe565b61313e60208301866129fe565b61314b6040830185612f12565b818103606083015261315d8184612a1c565b905095945050505050565b600060408201905061317d60008301856129fe565b61318a6020830184612f12565b9392505050565b60006020820190506131a66000830184612a0d565b92915050565b600060208201905081810360008301526131c68184612a55565b905092915050565b600060608201905081810360008301526131e88186612a55565b90506131f76020830185612f12565b61320460408301846129fe565b949350505050565b6000602082019050818103600083015261322581612b3e565b9050919050565b6000602082019050818103600083015261324581612b61565b9050919050565b6000602082019050818103600083015261326581612b84565b9050919050565b6000602082019050818103600083015261328581612ba7565b9050919050565b600060208201905081810360008301526132a581612c10565b9050919050565b600060208201905081810360008301526132c581612c33565b9050919050565b600060208201905081810360008301526132e581612c9c565b9050919050565b6000602082019050818103600083015261330581612ce2565b9050919050565b6000602082019050818103600083015261332581612d05565b9050919050565b6000602082019050818103600083015261334581612d28565b9050919050565b6000602082019050818103600083015261336581612d4b565b9050919050565b6000602082019050818103600083015261338581612d91565b9050919050565b600060208201905081810360008301526133a581612db4565b9050919050565b600060208201905081810360008301526133c581612dd7565b9050919050565b600060208201905081810360008301526133e581612e1d565b9050919050565b6000602082019050818103600083015261340581612e63565b9050919050565b6000602082019050818103600083015261342581612ecc565b9050919050565b6000602082019050818103600083015261344581612eef565b9050919050565b60006020820190506134616000830184612f12565b92915050565b600060408201905061347c6000830185612f12565b6134896020830184612f12565b9392505050565b600061349a6134ab565b90506134a6828261373b565b919050565b6000604051905090565b600067ffffffffffffffff8211156134d0576134cf613873565b5b6134d9826138a2565b9050602081019050919050565b60008190508160005260206000209050919050565b600081519050919050565b600081519050919050565b600082825260208201905092915050565b600082825260208201905092915050565b600081905092915050565b6000613549826136bd565b9150613554836136bd565b9250827fffffffffffffffffffffffffffffffffffffffffffffffffffffffffffffffff03821115613589576135886137e6565b5b828201905092915050565b600061359f826136bd565b91506135aa836136bd565b9250826135ba576135b9613815565b5b828204905092915050565b60006135d0826136bd565b91506135db836136bd565b9250817fffffffffffffffffffffffffffffffffffffffffffffffffffffffffffffffff0483118215151615613614576136136137e6565b5b828202905092915050565b600061362a826136bd565b9150613635836136bd565b925082821015613648576136476137e6565b5b828203905092915050565b600061365e8261369d565b9050919050565b60008115159050919050565b60007fffffffff0000000000000000000000000000000000000000000000000000000082169050919050565b600073ffffffffffffffffffffffffffffffffffffffff82169050919050565b6000819050919050565b82818337600083830152505050565b60005b838110156136f45780820151818401526020810190506136d9565b83811115613703576000848401525b50505050565b6000600282049050600182168061372157607f821691505b6020821081141561373557613734613844565b5b50919050565b613744826138a2565b810181811067ffffffffffffffff8211171561376357613762613873565b5b80604052505050565b6000613777826136bd565b91507fffffffffffffffffffffffffffffffffffffffffffffffffffffffffffffffff8214156137aa576137a96137e6565b5b600182019050919050565b60006137c0826136bd565b91506137cb836136bd565b9250826137db576137da613815565b5b828206905092915050565b7f4e487b7100000000000000000000000000000000000000000000000000000000600052601160045260246000fd5b7f4e487b7100000000000000000000000000000000000000000000000000000000600052601260045260246000fd5b7f4e487b7100000000000000000000000000000000000000000000000000000000600052602260045260246000fd5b7f4e487b7100000000000000000000000000000000000000000000000000000000600052604160045260246000fd5b6000601f19601f8301169050919050565b7f4552433732313a207472616e7366657220746f206e6f6e20455243373231526560008201527f63656976657220696d706c656d656e7465720000000000000000000000000000602082015250565b7f596f752063616e2774206d696e742c796f7520616c7265616479206f6e206d6960008201527f6e74206c696d69742e0000000000000000000000000000000000000000000000602082015250565b7f4552433732313a207472616e736665722066726f6d20696e636f72726563742060008201527f6f776e6572000000000000000000000000000000000000000000000000000000602082015250565b7f4552433732313a20746f6b656e20616c7265616479206d696e74656400000000600082015250565b7f54484952445f574f524400000000000000000000000000000000000000000000600082015250565b7f464f4e545f46414d494c59000000000000000000000000000000000000000000600082015250565b7f4552433732313a207472616e7366657220746f20746865207a65726f2061646460008201527f7265737300000000000000000000000000000000000000000000000000000000602082015250565b7f4552433732313a20617070726f766520746f2063616c6c657200000000000000600082015250565b7f222c20226465736372697074696f6e223a20224120686967686c79206163636c60008201527f61696d656420636f6c6c656374696f6e206f6620737175617265732e222c202260208201527f696d616765223a2022646174613a696d6167652f7376672b786d6c3b6261736560408201527f36342c0000000000000000000000000000000000000000000000000000000000606082015250565b7f5345434f4e445f574f5244000000000000000000000000000000000000000000600082015250565b7f4552433732313a206f70657261746f7220717565727920666f72206e6f6e657860008201527f697374656e7420746f6b656e0000000000000000000000000000000000000000602082015250565b7f3c2f746578743e3c2f7376673e00000000000000000000000000000000000000600082015250565b7f4552433732313a20617070726f76652063616c6c6572206973206e6f74206f7760008201527f6e6572206e6f7220617070726f76656420666f7220616c6c0000000000000000602082015250565b7f4552433732313a2062616c616e636520717565727920666f7220746865207a6560008201527f726f206164647265737300000000000000000000000000000000000000000000602082015250565b7f4552433732313a206f776e657220717565727920666f72206e6f6e657869737460008201527f656e7420746f6b656e0000000000000000000000000000000000000000000000602082015250565b7f45524337323155524953746f726167653a2055524920736574206f66206e6f6e60008201527f6578697374656e7420746f6b656e000000000000000000000000000000000000602082015250565b7f227d000000000000000000000000000000000000000000000000000000000000600082015250565b7f4552433732313a206d696e7420746f20746865207a65726f2061646472657373600082015250565b7f45524337323155524953746f726167653a2055524920717565727920666f722060008201527f6e6f6e6578697374656e7420746f6b656e000000000000000000000000000000602082015250565b7f4552433732313a20617070726f76656420717565727920666f72206e6f6e657860008201527f697374656e7420746f6b656e0000000000000000000000000000000000000000602082015250565b7f42475f434f4c4f52000000000000000000000000000000000000000000000000600082015250565b7f4552433732314d657461646174613a2055524920717565727920666f72206e6f60008201527f6e6578697374656e7420746f6b656e0000000000000000000000000000000000602082015250565b7f7b226e616d65223a202200000000000000000000000000000000000000000000600082015250565b7f4552433732313a20617070726f76616c20746f2063757272656e74206f776e6560008201527f7200000000000000000000000000000000000000000000000000000000000000602082015250565b7f46495253545f574f524400000000000000000000000000000000000000000000600082015250565b7f646174613a6170706c69636174696f6e2f6a736f6e3b6261736536342c000000600082015250565b7f4552433732313a207472616e736665722063616c6c6572206973206e6f74206f60008201527f776e6572206e6f7220617070726f766564000000000000000000000000000000602082015250565b7f506c6573616520776169742031206d696e7320666f722065616368206d696e74600082015250565b613fbe81613653565b8114613fc957600080fd5b50565b613fd581613665565b8114613fe057600080fd5b50565b613fec81613671565b8114613ff757600080fd5b50565b614003816136bd565b811461400e57600080fd5b5056fe416e204e465420772f20494420257320686173206265656e206d696e74656420746f2025734142434445464748494a4b4c4d4e4f505152535455565758595a6162636465666768696a6b6c6d6e6f707172737475767778797a303132333435363738392b2fa2646970667358221220ec1d59e57a924814af2998468fa0a28f9edca9faa92cd5e769d0b7136cd9aabb64736f6c634300080400333c73766720786d6c6e733d27687474703a2f2f7777772e77332e6f72672f323030302f73766727207072657365727665417370656374526174696f3d27784d696e594d696e206d656574272076696577426f783d273020302033353020333530273e3c7374796c653e2e62617365207b2066696c6c3a2077686974653b20666f6e742d66616d696c793a3b20666f6e742d73697a653a20323470783b207d3c2f7374796c653e3c726563742077696474683d273130302527206865696768743d2731303025272066696c6c3d2754686973206973206d792065706963206e667420736d61727420636f6e7472616374272f3e3c7465787420783d273530252720793d273530252720636c6173733d27626173652720646f6d696e616e742d626173656c696e653d276d6964646c652720746578742d616e63686f723d276d6964646c65273e",
  "linkReferences": {},
  "deployedLinkReferences": {}
}