{
  "_format": "hh-sol-artifact-1",
  "contractName": "MyEpicNFT",
  "sourceName": "contracts/MyEpicNFT.sol",
  "abi": [
    {
      "inputs": [],
      "stateMutability": "nonpayable",
      "type": "constructor"
    },
    {
      "anonymous": false,
      "inputs": [
        {
          "indexed": true,
          "internalType": "address",
          "name": "owner",
          "type": "address"
        },
        {
          "indexed": true,
          "internalType": "address",
          "name": "approved",
          "type": "address"
        },
        {
          "indexed": true,
          "internalType": "uint256",
          "name": "tokenId",
          "type": "uint256"
        }
      ],
      "name": "Approval",
      "type": "event"
    },
    {
      "anonymous": false,
      "inputs": [
        {
          "indexed": true,
          "internalType": "address",
          "name": "owner",
          "type": "address"
        },
        {
          "indexed": true,
          "internalType": "address",
          "name": "operator",
          "type": "address"
        },
        {
          "indexed": false,
          "internalType": "bool",
          "name": "approved",
          "type": "bool"
        }
      ],
      "name": "ApprovalForAll",
      "type": "event"
    },
    {
      "anonymous": false,
      "inputs": [
        {
          "indexed": false,
          "internalType": "uint256",
          "name": "totalNFTs",
          "type": "uint256"
        },
        {
          "indexed": false,
          "internalType": "uint256",
          "name": "mintTimes",
          "type": "uint256"
        }
      ],
      "name": "GetTotalNFTMint",
      "type": "event"
    },
    {
      "anonymous": false,
      "inputs": [
        {
          "indexed": false,
          "internalType": "address",
          "name": "sender",
          "type": "address"
        },
        {
          "indexed": false,
          "internalType": "uint256",
          "name": "tokenId",
          "type": "uint256"
        }
      ],
      "name": "NewEpicNFTMinted",
      "type": "event"
    },
    {
      "anonymous": false,
      "inputs": [
        {
          "indexed": true,
          "internalType": "address",
          "name": "from",
          "type": "address"
        },
        {
          "indexed": true,
          "internalType": "address",
          "name": "to",
          "type": "address"
        },
        {
          "indexed": true,
          "internalType": "uint256",
          "name": "tokenId",
          "type": "uint256"
        }
      ],
      "name": "Transfer",
      "type": "event"
    },
    {
      "inputs": [
        {
          "internalType": "address",
          "name": "to",
          "type": "address"
        },
        {
          "internalType": "uint256",
          "name": "tokenId",
          "type": "uint256"
        }
      ],
      "name": "approve",
      "outputs": [],
      "stateMutability": "nonpayable",
      "type": "function"
    },
    {
      "inputs": [
        {
          "internalType": "address",
          "name": "owner",
          "type": "address"
        }
      ],
      "name": "balanceOf",
      "outputs": [
        {
          "internalType": "uint256",
          "name": "",
          "type": "uint256"
        }
      ],
      "stateMutability": "view",
      "type": "function"
    },
    {
      "inputs": [
        {
          "internalType": "uint256",
          "name": "tokenId",
          "type": "uint256"
        }
      ],
      "name": "getApproved",
      "outputs": [
        {
          "internalType": "address",
          "name": "",
          "type": "address"
        }
      ],
      "stateMutability": "view",
      "type": "function"
    },
    {
      "inputs": [],
      "name": "getNFTInfo",
      "outputs": [],
      "stateMutability": "nonpayable",
      "type": "function"
    },
    {
      "inputs": [
        {
          "internalType": "address",
          "name": "owner",
          "type": "address"
        },
        {
          "internalType": "address",
          "name": "operator",
          "type": "address"
        }
      ],
      "name": "isApprovedForAll",
      "outputs": [
        {
          "internalType": "bool",
          "name": "",
          "type": "bool"
        }
      ],
      "stateMutability": "view",
      "type": "function"
    },
    {
      "inputs": [
        {
          "internalType": "address",
          "name": "",
          "type": "address"
        }
      ],
      "name": "lastMintAt",
      "outputs": [
        {
          "internalType": "uint256",
          "name": "",
          "type": "uint256"
        }
      ],
      "stateMutability": "view",
      "type": "function"
    },
    {
      "inputs": [],
      "name": "makeAnEpicNFT",
      "outputs": [],
      "stateMutability": "nonpayable",
      "type": "function"
    },
    {
      "inputs": [],
      "name": "name",
      "outputs": [
        {
          "internalType": "string",
          "name": "",
          "type": "string"
        }
      ],
      "stateMutability": "view",
      "type": "function"
    },
    {
      "inputs": [
        {
          "internalType": "uint256",
          "name": "tokenId",
          "type": "uint256"
        }
      ],
      "name": "ownerOf",
      "outputs": [
        {
          "internalType": "address",
          "name": "",
          "type": "address"
        }
      ],
      "stateMutability": "view",
      "type": "function"
    },
    {
      "inputs": [
        {
          "internalType": "uint256",
          "name": "tokenId",
          "type": "uint256"
        }
      ],
      "name": "pickRandomBgColor",
      "outputs": [
        {
          "internalType": "string",
          "name": "",
          "type": "string"
        }
      ],
      "stateMutability": "view",
      "type": "function"
    },
    {
      "inputs": [
        {
          "internalType": "uint256",
          "name": "tokenId",
          "type": "uint256"
        }
      ],
      "name": "pickRandomFirstWord",
      "outputs": [
        {
          "internalType": "string",
          "name": "",
          "type": "string"
        }
      ],
      "stateMutability": "view",
      "type": "function"
    },
    {
      "inputs": [
        {
          "internalType": "uint256",
          "name": "tokenId",
          "type": "uint256"
        }
      ],
      "name": "pickRandomFontFamily",
      "outputs": [
        {
          "internalType": "string",
          "name": "",
          "type": "string"
        }
      ],
      "stateMutability": "view",
      "type": "function"
    },
    {
      "inputs": [
        {
          "internalType": "uint256",
          "name": "tokenId",
          "type": "uint256"
        }
      ],
      "name": "pickRandomSecondWord",
      "outputs": [
        {
          "internalType": "string",
          "name": "",
          "type": "string"
        }
      ],
      "stateMutability": "view",
      "type": "function"
    },
    {
      "inputs": [
        {
          "internalType": "uint256",
          "name": "tokenId",
          "type": "uint256"
        }
      ],
      "name": "pickRandomThirdWord",
      "outputs": [
        {
          "internalType": "string",
          "name": "",
          "type": "string"
        }
      ],
      "stateMutability": "view",
      "type": "function"
    },
    {
      "inputs": [
        {
          "internalType": "address",
          "name": "from",
          "type": "address"
        },
        {
          "internalType": "address",
          "name": "to",
          "type": "address"
        },
        {
          "internalType": "uint256",
          "name": "tokenId",
          "type": "uint256"
        }
      ],
      "name": "safeTransferFrom",
      "outputs": [],
      "stateMutability": "nonpayable",
      "type": "function"
    },
    {
      "inputs": [
        {
          "internalType": "address",
          "name": "from",
          "type": "address"
        },
        {
          "internalType": "address",
          "name": "to",
          "type": "address"
        },
        {
          "internalType": "uint256",
          "name": "tokenId",
          "type": "uint256"
        },
        {
          "internalType": "bytes",
          "name": "data",
          "type": "bytes"
        }
      ],
      "name": "safeTransferFrom",
      "outputs": [],
      "stateMutability": "nonpayable",
      "type": "function"
    },
    {
      "inputs": [
        {
          "internalType": "address",
          "name": "operator",
          "type": "address"
        },
        {
          "internalType": "bool",
          "name": "approved",
          "type": "bool"
        }
      ],
      "name": "setApprovalForAll",
      "outputs": [],
      "stateMutability": "nonpayable",
      "type": "function"
    },
    {
      "inputs": [
        {
          "internalType": "bytes4",
          "name": "interfaceId",
          "type": "bytes4"
        }
      ],
      "name": "supportsInterface",
      "outputs": [
        {
          "internalType": "bool",
          "name": "",
          "type": "bool"
        }
      ],
      "stateMutability": "view",
      "type": "function"
    },
    {
      "inputs": [],
      "name": "symbol",
      "outputs": [
        {
          "internalType": "string",
          "name": "",
          "type": "string"
        }
      ],
      "stateMutability": "view",
      "type": "function"
    },
    {
      "inputs": [
        {
          "internalType": "uint256",
          "name": "tokenId",
          "type": "uint256"
        }
      ],
      "name": "tokenURI",
      "outputs": [
        {
          "internalType": "string",
          "name": "",
          "type": "string"
        }
      ],
      "stateMutability": "view",
      "type": "function"
    },
    {
      "inputs": [
        {
          "internalType": "address",
          "name": "from",
          "type": "address"
        },
        {
          "internalType": "address",
          "name": "to",
          "type": "address"
        },
        {
          "internalType": "uint256",
          "name": "tokenId",
          "type": "uint256"
        }
      ],
      "name": "transferFrom",
      "outputs": [],
      "stateMutability": "nonpayable",
      "type": "function"
    }
  ],
  "bytecode": "0x6080604052603260075560006008556040518060c00160405280608a815260200162004fd6608a9139600a908162000038919062000da8565b506040518060800160405280604381526020016200508760439139600b908162000063919062000da8565b50604051806080016040528060568152602001620050ca60569139600c90816200008e919062000da8565b506040518060c001604052806040518060400160405280600d81526020017f436f6d69632053616e73204d530000000000000000000000000000000000000081525081526020016040518060400160405280600b81526020017f436f70706572706c61746500000000000000000000000000000000000000000081525081526020016040518060400160405280600581526020017f736572696600000000000000000000000000000000000000000000000000000081525081526020016040518060400160405280600781526020017f506170797275730000000000000000000000000000000000000000000000000081525081526020016040518060400160405280600681526020017f496d70616374000000000000000000000000000000000000000000000000000081525081526020016040518060400160405280600881526020017f43686172636f616c000000000000000000000000000000000000000000000000815250815250600e9060066200020c929190620009e1565b506040518060c001604052806040518060400160405280600581526020017f426c61636b00000000000000000000000000000000000000000000000000000081525081526020016040518060400160405280600481526020017f426c75650000000000000000000000000000000000000000000000000000000081525081526020016040518060400160405280600481526020017f50696e6b0000000000000000000000000000000000000000000000000000000081525081526020016040518060400160405280600681526020017f507572706c65000000000000000000000000000000000000000000000000000081525081526020016040518060400160405280600381526020017f526564000000000000000000000000000000000000000000000000000000000081525081526020016040518060400160405280600581526020017f477265656e000000000000000000000000000000000000000000000000000000815250815250600f9060066200038a929190620009e1565b506040518060c001604052806040518060400160405280600481526020017f4461726b0000000000000000000000000000000000000000000000000000000081525081526020016040518060400160405280600581526020017f477265617400000000000000000000000000000000000000000000000000000081525081526020016040518060400160405280600581526020017f46756e6e7900000000000000000000000000000000000000000000000000000081525081526020016040518060400160405280600681526020017f5374726f6e67000000000000000000000000000000000000000000000000000081525081526020016040518060400160405280600781526020017f426164646573740000000000000000000000000000000000000000000000000081525081526020016040518060400160405280600681526020017f47616c6178790000000000000000000000000000000000000000000000000000815250815250601090600662000508929190620009e1565b506040518060c001604052806040518060400160405280600481526020017f4d6973740000000000000000000000000000000000000000000000000000000081525081526020016040518060400160405280600481526020017f466972650000000000000000000000000000000000000000000000000000000081525081526020016040518060400160405280600581526020017f4c6967687400000000000000000000000000000000000000000000000000000081525081526020016040518060400160405280600381526020017f496365000000000000000000000000000000000000000000000000000000000081525081526020016040518060400160405280600581526020017f456172746800000000000000000000000000000000000000000000000000000081525081526020016040518060400160405280600781526020017f5468756e64657200000000000000000000000000000000000000000000000000815250815250601190600662000686929190620009e1565b506040518060e001604052806040518060400160405280600781526020017f4d6f6e737465720000000000000000000000000000000000000000000000000081525081526020016040518060400160405280600681526020017f447261676f6e000000000000000000000000000000000000000000000000000081525081526020016040518060400160405280600781526020017f4e6f6f646c65730000000000000000000000000000000000000000000000000081525081526020016040518060400160405280600581526020017f416e676c6500000000000000000000000000000000000000000000000000000081525081526020016040518060400160405280600381526020017f4d616e000000000000000000000000000000000000000000000000000000000081525081526020016040518060400160405280600581526020017f576f6d656e00000000000000000000000000000000000000000000000000000081525081526020016040518060400160405280600481526020017f576f6c660000000000000000000000000000000000000000000000000000000081525081525060129060076200083f92919062000a41565b503480156200084d57600080fd5b506040518060400160405280600781526020017f4865726f4e4654000000000000000000000000000000000000000000000000008152506040518060400160405280600681526020017f53515541524500000000000000000000000000000000000000000000000000008152508160009081620008cb919062000da8565b508060019081620008dd919062000da8565b5050506200090f60405180606001604052806027815260200162005060602791396200091560201b6200140b1760201c565b62000f42565b620009b5816040516024016200092c919062000f1e565b6040516020818303038152906040527f41304fac000000000000000000000000000000000000000000000000000000007bffffffffffffffffffffffffffffffffffffffffffffffffffffffff19166020820180517bffffffffffffffffffffffffffffffffffffffffffffffffffffffff8381831617835250505050620009b860201b60201c565b50565b60008151905060006a636f6e736f6c652e6c6f679050602083016000808483855afa5050505050565b82805482825590600052602060002090810192821562000a2e579160200282015b8281111562000a2d57825182908162000a1c919062000da8565b509160200191906001019062000a02565b5b50905062000a3d919062000aa1565b5090565b82805482825590600052602060002090810192821562000a8e579160200282015b8281111562000a8d57825182908162000a7c919062000da8565b509160200191906001019062000a62565b5b50905062000a9d919062000aa1565b5090565b5b8082111562000ac5576000818162000abb919062000ac9565b5060010162000aa2565b5090565b50805462000ad79062000b97565b6000825580601f1062000aeb575062000b0c565b601f01602090049060005260206000209081019062000b0b919062000b0f565b5b50565b5b8082111562000b2a57600081600090555060010162000b10565b5090565b600081519050919050565b7f4e487b7100000000000000000000000000000000000000000000000000000000600052604160045260246000fd5b7f4e487b7100000000000000000000000000000000000000000000000000000000600052602260045260246000fd5b6000600282049050600182168062000bb057607f821691505b60208210810362000bc65762000bc562000b68565b5b50919050565b60008190508160005260206000209050919050565b60006020601f8301049050919050565b600082821b905092915050565b60006008830262000c307fffffffffffffffffffffffffffffffffffffffffffffffffffffffffffffffff8262000bf1565b62000c3c868362000bf1565b95508019841693508086168417925050509392505050565b6000819050919050565b6000819050919050565b600062000c8962000c8362000c7d8462000c54565b62000c5e565b62000c54565b9050919050565b6000819050919050565b62000ca58362000c68565b62000cbd62000cb48262000c90565b84845462000bfe565b825550505050565b600090565b62000cd462000cc5565b62000ce181848462000c9a565b505050565b5b8181101562000d095762000cfd60008262000cca565b60018101905062000ce7565b5050565b601f82111562000d585762000d228162000bcc565b62000d2d8462000be1565b8101602085101562000d3d578190505b62000d5562000d4c8562000be1565b83018262000ce6565b50505b505050565b600082821c905092915050565b600062000d7d6000198460080262000d5d565b1980831691505092915050565b600062000d98838362000d6a565b9150826002028217905092915050565b62000db38262000b2e565b67ffffffffffffffff81111562000dcf5762000dce62000b39565b5b62000ddb825462000b97565b62000de882828562000d0d565b600060209050601f83116001811462000e20576000841562000e0b578287015190505b62000e17858262000d8a565b86555062000e87565b601f19841662000e308662000bcc565b60005b8281101562000e5a5784890151825560018201915060208501945060208101905062000e33565b8683101562000e7a578489015162000e76601f89168262000d6a565b8355505b6001600288020188555050505b505050505050565b600082825260208201905092915050565b60005b8381101562000ec057808201518184015260208101905062000ea3565b60008484015250505050565b6000601f19601f8301169050919050565b600062000eea8262000b2e565b62000ef6818562000e8f565b935062000f0881856020860162000ea0565b62000f138162000ecc565b840191505092915050565b6000602082019050818103600083015262000f3a818462000edd565b905092915050565b6140848062000f526000396000f3fe608060405234801561001057600080fd5b50600436106101375760003560e01c80636352211e116100b8578063b88d4fde1161007c578063b88d4fde14610372578063c575757a1461038e578063c87b56dd146103be578063ce26da10146103ee578063de9d132f1461041e578063e985e9c51461042857610137565b80636352211e146102a857806370a08231146102d857806395d89b4114610308578063a22cb46514610326578063b187301f1461034257610137565b80632de38d68116100ff5780632de38d68146101f2578063384c40ba14610222578063427cec451461025257806342842e0e146102825780634d21e0191461029e57610137565b806301ffc9a71461013c57806306fdde031461016c578063081812fc1461018a578063095ea7b3146101ba57806323b872dd146101d6575b600080fd5b6101566004803603810190610151919061276a565b610458565b60405161016391906127b2565b60405180910390f35b61017461053a565b604051610181919061285d565b60405180910390f35b6101a4600480360381019061019f91906128b5565b6105cc565b6040516101b19190612923565b60405180910390f35b6101d460048036038101906101cf919061296a565b610612565b005b6101f060048036038101906101eb91906129aa565b610729565b005b61020c600480360381019061020791906128b5565b610789565b604051610219919061285d565b60405180910390f35b61023c600480360381019061023791906129fd565b610881565b6040516102499190612a39565b60405180910390f35b61026c600480360381019061026791906128b5565b610899565b604051610279919061285d565b60405180910390f35b61029c600480360381019061029791906129aa565b610991565b005b6102a66109b1565b005b6102c260048036038101906102bd91906128b5565b6109f0565b6040516102cf9190612923565b60405180910390f35b6102f260048036038101906102ed91906129fd565b610a76565b6040516102ff9190612a39565b60405180910390f35b610310610b2d565b60405161031d919061285d565b60405180910390f35b610340600480360381019061033b9190612a80565b610bbf565b005b61035c600480360381019061035791906128b5565b610bd5565b604051610369919061285d565b60405180910390f35b61038c60048036038101906103879190612bf5565b610ccd565b005b6103a860048036038101906103a391906128b5565b610d2f565b6040516103b5919061285d565b60405180910390f35b6103d860048036038101906103d391906128b5565b610e27565b6040516103e5919061285d565b60405180910390f35b610408600480360381019061040391906128b5565b610f39565b604051610415919061285d565b60405180910390f35b610426611031565b005b610442600480360381019061043d9190612c78565b611377565b60405161044f91906127b2565b60405180910390f35b60007f80ac58cd000000000000000000000000000000000000000000000000000000007bffffffffffffffffffffffffffffffffffffffffffffffffffffffff1916827bffffffffffffffffffffffffffffffffffffffffffffffffffffffff1916148061052357507f5b5e139f000000000000000000000000000000000000000000000000000000007bffffffffffffffffffffffffffffffffffffffffffffffffffffffff1916827bffffffffffffffffffffffffffffffffffffffffffffffffffffffff1916145b806105335750610532826114a4565b5b9050919050565b60606000805461054990612ce7565b80601f016020809104026020016040519081016040528092919081815260200182805461057590612ce7565b80156105c25780601f10610597576101008083540402835291602001916105c2565b820191906000526020600020905b8154815290600101906020018083116105a557829003601f168201915b5050505050905090565b60006105d78261150e565b6004600083815260200190815260200160002060009054906101000a900473ffffffffffffffffffffffffffffffffffffffff169050919050565b600061061d826109f0565b90508073ffffffffffffffffffffffffffffffffffffffff168373ffffffffffffffffffffffffffffffffffffffff160361068d576040517f08c379a000000000000000000000000000000000000000000000000000000000815260040161068490612d8a565b60405180910390fd5b8073ffffffffffffffffffffffffffffffffffffffff166106ac611559565b73ffffffffffffffffffffffffffffffffffffffff1614806106db57506106da816106d5611559565b611377565b5b61071a576040517f08c379a000000000000000000000000000000000000000000000000000000000815260040161071190612e1c565b60405180910390fd5b6107248383611561565b505050565b61073a610734611559565b8261161a565b610779576040517f08c379a000000000000000000000000000000000000000000000000000000000815260040161077090612eae565b60405180910390fd5b6107848383836116af565b505050565b606060006107bd610799846119a8565b6040516020016107a99190612f56565b604051602081830303815290604052611a76565b9050601080549050816107d09190612fa7565b9050601081815481106107e6576107e5612fd8565b5b9060005260206000200180546107fb90612ce7565b80601f016020809104026020016040519081016040528092919081815260200182805461082790612ce7565b80156108745780601f1061084957610100808354040283529160200191610874565b820191906000526020600020905b81548152906001019060200180831161085757829003601f168201915b5050505050915050919050565b600d6020528060005260406000206000915090505481565b606060006108cd6108a9846119a8565b6040516020016108b99190613053565b604051602081830303815290604052611a76565b9050600f80549050816108e09190612fa7565b9050600f81815481106108f6576108f5612fd8565b5b90600052602060002001805461090b90612ce7565b80601f016020809104026020016040519081016040528092919081815260200182805461093790612ce7565b80156109845780601f1061095957610100808354040283529160200191610984565b820191906000526020600020905b81548152906001019060200180831161096757829003601f168201915b5050505050915050919050565b6109ac83838360405180602001604052806000815250610ccd565b505050565b7f41deadfc504019bfcc781035ac7df7f9839cdc958fac7e95a3e495c65c87500c6007546008546040516109e6929190613075565b60405180910390a1565b6000806109fc83611aa9565b9050600073ffffffffffffffffffffffffffffffffffffffff168173ffffffffffffffffffffffffffffffffffffffff1603610a6d576040517f08c379a0000000000000000000000000000000000000000000000000000000008152600401610a64906130ea565b60405180910390fd5b80915050919050565b60008073ffffffffffffffffffffffffffffffffffffffff168273ffffffffffffffffffffffffffffffffffffffff1603610ae6576040517f08c379a0000000000000000000000000000000000000000000000000000000008152600401610add9061317c565b60405180910390fd5b600360008373ffffffffffffffffffffffffffffffffffffffff1673ffffffffffffffffffffffffffffffffffffffff168152602001908152602001600020549050919050565b606060018054610b3c90612ce7565b80601f0160208091040260200160405190810160405280929190818152602001828054610b6890612ce7565b8015610bb55780601f10610b8a57610100808354040283529160200191610bb5565b820191906000526020600020905b815481529060010190602001808311610b9857829003601f168201915b5050505050905090565b610bd1610bca611559565b8383611ae6565b5050565b60606000610c09610be5846119a8565b604051602001610bf591906131e8565b604051602081830303815290604052611a76565b905060118054905081610c1c9190612fa7565b905060118181548110610c3257610c31612fd8565b5b906000526020600020018054610c4790612ce7565b80601f0160208091040260200160405190810160405280929190818152602001828054610c7390612ce7565b8015610cc05780601f10610c9557610100808354040283529160200191610cc0565b820191906000526020600020905b815481529060010190602001808311610ca357829003601f168201915b5050505050915050919050565b610cde610cd8611559565b8361161a565b610d1d576040517f08c379a0000000000000000000000000000000000000000000000000000000008152600401610d1490612eae565b60405180910390fd5b610d2984848484611c52565b50505050565b60606000610d63610d3f846119a8565b604051602001610d4f9190613256565b604051602081830303815290604052611a76565b905060128054905081610d769190612fa7565b905060128181548110610d8c57610d8b612fd8565b5b906000526020600020018054610da190612ce7565b80601f0160208091040260200160405190810160405280929190818152602001828054610dcd90612ce7565b8015610e1a5780601f10610def57610100808354040283529160200191610e1a565b820191906000526020600020905b815481529060010190602001808311610dfd57829003601f168201915b5050505050915050919050565b6060610e328261150e565b6000600660008481526020019081526020016000208054610e5290612ce7565b80601f0160208091040260200160405190810160405280929190818152602001828054610e7e90612ce7565b8015610ecb5780601f10610ea057610100808354040283529160200191610ecb565b820191906000526020600020905b815481529060010190602001808311610eae57829003601f168201915b505050505090506000610edc611cae565b90506000815103610ef1578192505050610f34565b600082511115610f26578082604051602001610f0e929190613278565b60405160208183030381529060405292505050610f34565b610f2f84611cc5565b925050505b919050565b60606000610f6d610f49846119a8565b604051602001610f5991906132e8565b604051602081830303815290604052611a76565b9050600e8054905081610f809190612fa7565b9050600e8181548110610f9657610f95612fd8565b5b906000526020600020018054610fab90612ce7565b80601f0160208091040260200160405190810160405280929190818152602001828054610fd790612ce7565b80156110245780601f10610ff957610100808354040283529160200191611024565b820191906000526020600020905b81548152906001019060200180831161100757829003601f168201915b5050505050915050919050565b60075460085410611077576040517f08c379a000000000000000000000000000000000000000000000000000000000815260040161106e9061337c565b60405180910390fd5b42603c600d60003373ffffffffffffffffffffffffffffffffffffffff1673ffffffffffffffffffffffffffffffffffffffff168152602001908152602001600020546110c491906133cb565b10611104576040517f08c379a00000000000000000000000000000000000000000000000000000000081526004016110fb9061344b565b60405180910390fd5b42600d60003373ffffffffffffffffffffffffffffffffffffffff1673ffffffffffffffffffffffffffffffffffffffff1681526020019081526020016000208190555060006111546009611d2d565b905060016008600082825461116991906133cb565b92505081905550600061117b82610789565b9050600061118883610bd5565b9050600061119584610d2f565b905060006111a285610899565b905060006111af86610f39565b905060008585856040516020016111c89392919061346b565b60405160208183030381529060405290506000600a83600b86600c866040516020016111f996959493929190613580565b6040516020818303038152906040529050600061123e8361121984611d3b565b60405160200161122a929190613739565b604051602081830303815290604052611d3b565b905060008160405160200161125391906137ca565b60405160208183030381529060405290506112a26040518060400160405280601581526020017f0a2d2d2d2d2d2d2d2d2d2d2d2d2d2d2d2d2d2d2d2d000000000000000000000081525061140b565b6112ab8161140b565b6112e96040518060400160405280601581526020017f2d2d2d2d2d2d2d2d2d2d2d2d2d2d2d2d2d2d2d2d0a000000000000000000000081525061140b565b6112f3338b611eb3565b6112fd8a82611ed1565b6113076009611f3e565b61132a604051806060016040528060258152602001613fea602591398b33611f54565b7febb98688741ffa4c7589bf325de30cf7becb63de567842e1ccdb6cb949fdc82c338b60405161135b9291906137ec565b60405180910390a161136b6109b1565b50505050505050505050565b6000600560008473ffffffffffffffffffffffffffffffffffffffff1673ffffffffffffffffffffffffffffffffffffffff16815260200190815260200160002060008373ffffffffffffffffffffffffffffffffffffffff1673ffffffffffffffffffffffffffffffffffffffff16815260200190815260200160002060009054906101000a900460ff16905092915050565b6114a18160405160240161141f919061285d565b6040516020818303038152906040527f41304fac000000000000000000000000000000000000000000000000000000007bffffffffffffffffffffffffffffffffffffffffffffffffffffffff19166020820180517bffffffffffffffffffffffffffffffffffffffffffffffffffffffff8381831617835250505050611ff3565b50565b60007f01ffc9a7000000000000000000000000000000000000000000000000000000007bffffffffffffffffffffffffffffffffffffffffffffffffffffffff1916827bffffffffffffffffffffffffffffffffffffffffffffffffffffffff1916149050919050565b6115178161201c565b611556576040517f08c379a000000000000000000000000000000000000000000000000000000000815260040161154d906130ea565b60405180910390fd5b50565b600033905090565b816004600083815260200190815260200160002060006101000a81548173ffffffffffffffffffffffffffffffffffffffff021916908373ffffffffffffffffffffffffffffffffffffffff160217905550808273ffffffffffffffffffffffffffffffffffffffff166115d4836109f0565b73ffffffffffffffffffffffffffffffffffffffff167f8c5be1e5ebec7d5bd14f71427d1e84f3dd0314c0f7b2291e5b200ac8c7c3b92560405160405180910390a45050565b600080611626836109f0565b90508073ffffffffffffffffffffffffffffffffffffffff168473ffffffffffffffffffffffffffffffffffffffff16148061166857506116678185611377565b5b806116a657508373ffffffffffffffffffffffffffffffffffffffff1661168e846105cc565b73ffffffffffffffffffffffffffffffffffffffff16145b91505092915050565b8273ffffffffffffffffffffffffffffffffffffffff166116cf826109f0565b73ffffffffffffffffffffffffffffffffffffffff1614611725576040517f08c379a000000000000000000000000000000000000000000000000000000000815260040161171c90613887565b60405180910390fd5b600073ffffffffffffffffffffffffffffffffffffffff168273ffffffffffffffffffffffffffffffffffffffff1603611794576040517f08c379a000000000000000000000000000000000000000000000000000000000815260040161178b90613919565b60405180910390fd5b6117a1838383600161205d565b8273ffffffffffffffffffffffffffffffffffffffff166117c1826109f0565b73ffffffffffffffffffffffffffffffffffffffff1614611817576040517f08c379a000000000000000000000000000000000000000000000000000000000815260040161180e90613887565b60405180910390fd5b6004600082815260200190815260200160002060006101000a81549073ffffffffffffffffffffffffffffffffffffffff02191690556001600360008573ffffffffffffffffffffffffffffffffffffffff1673ffffffffffffffffffffffffffffffffffffffff168152602001908152602001600020600082825403925050819055506001600360008473ffffffffffffffffffffffffffffffffffffffff1673ffffffffffffffffffffffffffffffffffffffff16815260200190815260200160002060008282540192505081905550816002600083815260200190815260200160002060006101000a81548173ffffffffffffffffffffffffffffffffffffffff021916908373ffffffffffffffffffffffffffffffffffffffff160217905550808273ffffffffffffffffffffffffffffffffffffffff168473ffffffffffffffffffffffffffffffffffffffff167fddf252ad1be2c89b69c2b068fc378daa952ba7f163c4a11628f55a4df523b3ef60405160405180910390a46119a38383836001612183565b505050565b6060600060016119b784612189565b01905060008167ffffffffffffffff8111156119d6576119d5612aca565b5b6040519080825280601f01601f191660200182016040528015611a085781602001600182028036833780820191505090505b509050600082602001820190505b600115611a6b578080600190039150507f3031323334353637383961626364656600000000000000000000000000000000600a86061a8153600a8581611a5f57611a5e612f78565b5b04945060008503611a16575b819350505050919050565b600081604051602001611a899190613939565b6040516020818303038152906040528051906020012060001c9050919050565b60006002600083815260200190815260200160002060009054906101000a900473ffffffffffffffffffffffffffffffffffffffff169050919050565b8173ffffffffffffffffffffffffffffffffffffffff168373ffffffffffffffffffffffffffffffffffffffff1603611b54576040517f08c379a0000000000000000000000000000000000000000000000000000000008152600401611b4b9061399c565b60405180910390fd5b80600560008573ffffffffffffffffffffffffffffffffffffffff1673ffffffffffffffffffffffffffffffffffffffff16815260200190815260200160002060008473ffffffffffffffffffffffffffffffffffffffff1673ffffffffffffffffffffffffffffffffffffffff16815260200190815260200160002060006101000a81548160ff0219169083151502179055508173ffffffffffffffffffffffffffffffffffffffff168373ffffffffffffffffffffffffffffffffffffffff167f17307eab39ab6107e8899845ad3d59bd9653f200f220920489ca2b5937696c3183604051611c4591906127b2565b60405180910390a3505050565b611c5d8484846116af565b611c69848484846122dc565b611ca8576040517f08c379a0000000000000000000000000000000000000000000000000000000008152600401611c9f90613a2e565b60405180910390fd5b50505050565b606060405180602001604052806000815250905090565b6060611cd08261150e565b6000611cda611cae565b90506000815111611cfa5760405180602001604052806000815250611d25565b80611d04846119a8565b604051602001611d15929190613278565b6040516020818303038152906040525b915050919050565b600081600001549050919050565b60606000825103611d5d57604051806020016040528060008152509050611eae565b600060405180606001604052806040815260200161400f6040913990506000600360028551611d8c91906133cb565b611d969190613a4e565b6004611da29190613a7f565b90506000602082611db391906133cb565b67ffffffffffffffff811115611dcc57611dcb612aca565b5b6040519080825280601f01601f191660200182016040528015611dfe5781602001600182028036833780820191505090505b509050818152600183018586518101602084015b81831015611e6d576003830192508251603f8160121c168501518253600182019150603f81600c1c168501518253600182019150603f8160061c168501518253600182019150603f8116850151825360018201915050611e12565b600389510660018114611e875760028114611e9757611ea2565b613d3d60f01b6002830352611ea2565b603d60f81b60018303525b50505050508093505050505b919050565b611ecd828260405180602001604052806000815250612463565b5050565b611eda8261201c565b611f19576040517f08c379a0000000000000000000000000000000000000000000000000000000008152600401611f1090613b33565b60405180910390fd5b80600660008481526020019081526020016000209081611f399190613cea565b505050565b6001816000016000828254019250508190555050565b611fee838383604051602401611f6c93929190613dbc565b6040516020818303038152906040527fe3849f79000000000000000000000000000000000000000000000000000000007bffffffffffffffffffffffffffffffffffffffffffffffffffffffff19166020820180517bffffffffffffffffffffffffffffffffffffffffffffffffffffffff8381831617835250505050611ff3565b505050565b60008151905060006a636f6e736f6c652e6c6f679050602083016000808483855afa5050505050565b60008073ffffffffffffffffffffffffffffffffffffffff1661203e83611aa9565b73ffffffffffffffffffffffffffffffffffffffff1614159050919050565b600181111561217d57600073ffffffffffffffffffffffffffffffffffffffff168473ffffffffffffffffffffffffffffffffffffffff16146120f15780600360008673ffffffffffffffffffffffffffffffffffffffff1673ffffffffffffffffffffffffffffffffffffffff16815260200190815260200160002060008282546120e99190613dfa565b925050819055505b600073ffffffffffffffffffffffffffffffffffffffff168373ffffffffffffffffffffffffffffffffffffffff161461217c5780600360008573ffffffffffffffffffffffffffffffffffffffff1673ffffffffffffffffffffffffffffffffffffffff168152602001908152602001600020600082825461217491906133cb565b925050819055505b5b50505050565b50505050565b600080600090507a184f03e93ff9f4daa797ed6e38ed64bf6a1f01000000000000000083106121e7577a184f03e93ff9f4daa797ed6e38ed64bf6a1f01000000000000000083816121dd576121dc612f78565b5b0492506040810190505b6d04ee2d6d415b85acef81000000008310612224576d04ee2d6d415b85acef8100000000838161221a57612219612f78565b5b0492506020810190505b662386f26fc10000831061225357662386f26fc10000838161224957612248612f78565b5b0492506010810190505b6305f5e100831061227c576305f5e100838161227257612271612f78565b5b0492506008810190505b61271083106122a157612710838161229757612296612f78565b5b0492506004810190505b606483106122c457606483816122ba576122b9612f78565b5b0492506002810190505b600a83106122d3576001810190505b80915050919050565b60006122fd8473ffffffffffffffffffffffffffffffffffffffff166124be565b15612456578373ffffffffffffffffffffffffffffffffffffffff1663150b7a02612326611559565b8786866040518563ffffffff1660e01b81526004016123489493929190613e83565b6020604051808303816000875af192505050801561238457506040513d601f19601f820116820180604052508101906123819190613ee4565b60015b612406573d80600081146123b4576040519150601f19603f3d011682016040523d82523d6000602084013e6123b9565b606091505b5060008151036123fe576040517f08c379a00000000000000000000000000000000000000000000000000000000081526004016123f590613a2e565b60405180910390fd5b805181602001fd5b63150b7a0260e01b7bffffffffffffffffffffffffffffffffffffffffffffffffffffffff1916817bffffffffffffffffffffffffffffffffffffffffffffffffffffffff19161491505061245b565b600190505b949350505050565b61246d83836124e1565b61247a60008484846122dc565b6124b9576040517f08c379a00000000000000000000000000000000000000000000000000000000081526004016124b090613a2e565b60405180910390fd5b505050565b6000808273ffffffffffffffffffffffffffffffffffffffff163b119050919050565b600073ffffffffffffffffffffffffffffffffffffffff168273ffffffffffffffffffffffffffffffffffffffff1603612550576040517f08c379a000000000000000000000000000000000000000000000000000000000815260040161254790613f5d565b60405180910390fd5b6125598161201c565b15612599576040517f08c379a000000000000000000000000000000000000000000000000000000000815260040161259090613fc9565b60405180910390fd5b6125a760008383600161205d565b6125b08161201c565b156125f0576040517f08c379a00000000000000000000000000000000000000000000000000000000081526004016125e790613fc9565b60405180910390fd5b6001600360008473ffffffffffffffffffffffffffffffffffffffff1673ffffffffffffffffffffffffffffffffffffffff16815260200190815260200160002060008282540192505081905550816002600083815260200190815260200160002060006101000a81548173ffffffffffffffffffffffffffffffffffffffff021916908373ffffffffffffffffffffffffffffffffffffffff160217905550808273ffffffffffffffffffffffffffffffffffffffff16600073ffffffffffffffffffffffffffffffffffffffff167fddf252ad1be2c89b69c2b068fc378daa952ba7f163c4a11628f55a4df523b3ef60405160405180910390a46126fa600083836001612183565b5050565b6000604051905090565b600080fd5b600080fd5b60007fffffffff0000000000000000000000000000000000000000000000000000000082169050919050565b61274781612712565b811461275257600080fd5b50565b6000813590506127648161273e565b92915050565b6000602082840312156127805761277f612708565b5b600061278e84828501612755565b91505092915050565b60008115159050919050565b6127ac81612797565b82525050565b60006020820190506127c760008301846127a3565b92915050565b600081519050919050565b600082825260208201905092915050565b60005b838110156128075780820151818401526020810190506127ec565b60008484015250505050565b6000601f19601f8301169050919050565b600061282f826127cd565b61283981856127d8565b93506128498185602086016127e9565b61285281612813565b840191505092915050565b600060208201905081810360008301526128778184612824565b905092915050565b6000819050919050565b6128928161287f565b811461289d57600080fd5b50565b6000813590506128af81612889565b92915050565b6000602082840312156128cb576128ca612708565b5b60006128d9848285016128a0565b91505092915050565b600073ffffffffffffffffffffffffffffffffffffffff82169050919050565b600061290d826128e2565b9050919050565b61291d81612902565b82525050565b60006020820190506129386000830184612914565b92915050565b61294781612902565b811461295257600080fd5b50565b6000813590506129648161293e565b92915050565b6000806040838503121561298157612980612708565b5b600061298f85828601612955565b92505060206129a0858286016128a0565b9150509250929050565b6000806000606084860312156129c3576129c2612708565b5b60006129d186828701612955565b93505060206129e286828701612955565b92505060406129f3868287016128a0565b9150509250925092565b600060208284031215612a1357612a12612708565b5b6000612a2184828501612955565b91505092915050565b612a338161287f565b82525050565b6000602082019050612a4e6000830184612a2a565b92915050565b612a5d81612797565b8114612a6857600080fd5b50565b600081359050612a7a81612a54565b92915050565b60008060408385031215612a9757612a96612708565b5b6000612aa585828601612955565b9250506020612ab685828601612a6b565b9150509250929050565b600080fd5b600080fd5b7f4e487b7100000000000000000000000000000000000000000000000000000000600052604160045260246000fd5b612b0282612813565b810181811067ffffffffffffffff82111715612b2157612b20612aca565b5b80604052505050565b6000612b346126fe565b9050612b408282612af9565b919050565b600067ffffffffffffffff821115612b6057612b5f612aca565b5b612b6982612813565b9050602081019050919050565b82818337600083830152505050565b6000612b98612b9384612b45565b612b2a565b905082815260208101848484011115612bb457612bb3612ac5565b5b612bbf848285612b76565b509392505050565b600082601f830112612bdc57612bdb612ac0565b5b8135612bec848260208601612b85565b91505092915050565b60008060008060808587031215612c0f57612c0e612708565b5b6000612c1d87828801612955565b9450506020612c2e87828801612955565b9350506040612c3f878288016128a0565b925050606085013567ffffffffffffffff811115612c6057612c5f61270d565b5b612c6c87828801612bc7565b91505092959194509250565b60008060408385031215612c8f57612c8e612708565b5b6000612c9d85828601612955565b9250506020612cae85828601612955565b9150509250929050565b7f4e487b7100000000000000000000000000000000000000000000000000000000600052602260045260246000fd5b60006002820490506001821680612cff57607f821691505b602082108103612d1257612d11612cb8565b5b50919050565b7f4552433732313a20617070726f76616c20746f2063757272656e74206f776e6560008201527f7200000000000000000000000000000000000000000000000000000000000000602082015250565b6000612d746021836127d8565b9150612d7f82612d18565b604082019050919050565b60006020820190508181036000830152612da381612d67565b9050919050565b7f4552433732313a20617070726f76652063616c6c6572206973206e6f7420746f60008201527f6b656e206f776e6572206f7220617070726f76656420666f7220616c6c000000602082015250565b6000612e06603d836127d8565b9150612e1182612daa565b604082019050919050565b60006020820190508181036000830152612e3581612df9565b9050919050565b7f4552433732313a2063616c6c6572206973206e6f7420746f6b656e206f776e6560008201527f72206f7220617070726f76656400000000000000000000000000000000000000602082015250565b6000612e98602d836127d8565b9150612ea382612e3c565b604082019050919050565b60006020820190508181036000830152612ec781612e8b565b9050919050565b600081905092915050565b7f46495253545f574f524400000000000000000000000000000000000000000000600082015250565b6000612f0f600a83612ece565b9150612f1a82612ed9565b600a82019050919050565b6000612f30826127cd565b612f3a8185612ece565b9350612f4a8185602086016127e9565b80840191505092915050565b6000612f6182612f02565b9150612f6d8284612f25565b915081905092915050565b7f4e487b7100000000000000000000000000000000000000000000000000000000600052601260045260246000fd5b6000612fb28261287f565b9150612fbd8361287f565b925082612fcd57612fcc612f78565b5b828206905092915050565b7f4e487b7100000000000000000000000000000000000000000000000000000000600052603260045260246000fd5b7f42475f434f4c4f52000000000000000000000000000000000000000000000000600082015250565b600061303d600883612ece565b915061304882613007565b600882019050919050565b600061305e82613030565b915061306a8284612f25565b915081905092915050565b600060408201905061308a6000830185612a2a565b6130976020830184612a2a565b9392505050565b7f4552433732313a20696e76616c696420746f6b656e2049440000000000000000600082015250565b60006130d46018836127d8565b91506130df8261309e565b602082019050919050565b60006020820190508181036000830152613103816130c7565b9050919050565b7f4552433732313a2061646472657373207a65726f206973206e6f74206120766160008201527f6c6964206f776e65720000000000000000000000000000000000000000000000602082015250565b60006131666029836127d8565b91506131718261310a565b604082019050919050565b6000602082019050818103600083015261319581613159565b9050919050565b7f5345434f4e445f574f5244000000000000000000000000000000000000000000600082015250565b60006131d2600b83612ece565b91506131dd8261319c565b600b82019050919050565b60006131f3826131c5565b91506131ff8284612f25565b915081905092915050565b7f54484952445f574f524400000000000000000000000000000000000000000000600082015250565b6000613240600a83612ece565b915061324b8261320a565b600a82019050919050565b600061326182613233565b915061326d8284612f25565b915081905092915050565b60006132848285612f25565b91506132908284612f25565b91508190509392505050565b7f464f4e545f46414d494c59000000000000000000000000000000000000000000600082015250565b60006132d2600b83612ece565b91506132dd8261329c565b600b82019050919050565b60006132f3826132c5565b91506132ff8284612f25565b915081905092915050565b7f596f752063616e2774206d696e742c796f7520616c7265616479206f6e206d6960008201527f6e74206c696d69742e0000000000000000000000000000000000000000000000602082015250565b60006133666029836127d8565b91506133718261330a565b604082019050919050565b6000602082019050818103600083015261339581613359565b9050919050565b7f4e487b7100000000000000000000000000000000000000000000000000000000600052601160045260246000fd5b60006133d68261287f565b91506133e18361287f565b92508282019050808211156133f9576133f861339c565b5b92915050565b7f506c6573616520776169742031206d696e7320666f722065616368206d696e74600082015250565b60006134356020836127d8565b9150613440826133ff565b602082019050919050565b6000602082019050818103600083015261346481613428565b9050919050565b60006134778286612f25565b91506134838285612f25565b915061348f8284612f25565b9150819050949350505050565b60008190508160005260206000209050919050565b600081546134be81612ce7565b6134c88186612ece565b945060018216600081146134e357600181146134f85761352b565b60ff198316865281151582028601935061352b565b6135018561349c565b60005b8381101561352357815481890152600182019150602081019050613504565b838801955050505b50505092915050565b7f3c2f746578743e3c2f7376673e00000000000000000000000000000000000000600082015250565b600061356a600d83612ece565b915061357582613534565b600d82019050919050565b600061358c82896134b1565b91506135988288612f25565b91506135a482876134b1565b91506135b08286612f25565b91506135bc82856134b1565b91506135c88284612f25565b91506135d38261355d565b9150819050979650505050505050565b7f7b226e616d65223a202200000000000000000000000000000000000000000000600082015250565b6000613619600a83612ece565b9150613624826135e3565b600a82019050919050565b7f222c20226465736372697074696f6e223a20224120686967686c79206163636c60008201527f61696d656420636f6c6c656374696f6e206f6620737175617265732e222c202260208201527f696d616765223a2022646174613a696d6167652f7376672b786d6c3b6261736560408201527f36342c0000000000000000000000000000000000000000000000000000000000606082015250565b60006136d7606383612ece565b91506136e28261362f565b606382019050919050565b7f227d000000000000000000000000000000000000000000000000000000000000600082015250565b6000613723600283612ece565b915061372e826136ed565b600282019050919050565b60006137448261360c565b91506137508285612f25565b915061375b826136ca565b91506137678284612f25565b915061377282613716565b91508190509392505050565b7f646174613a6170706c69636174696f6e2f6a736f6e3b6261736536342c000000600082015250565b60006137b4601d83612ece565b91506137bf8261377e565b601d82019050919050565b60006137d5826137a7565b91506137e18284612f25565b915081905092915050565b60006040820190506138016000830185612914565b61380e6020830184612a2a565b9392505050565b7f4552433732313a207472616e736665722066726f6d20696e636f72726563742060008201527f6f776e6572000000000000000000000000000000000000000000000000000000602082015250565b60006138716025836127d8565b915061387c82613815565b604082019050919050565b600060208201905081810360008301526138a081613864565b9050919050565b7f4552433732313a207472616e7366657220746f20746865207a65726f2061646460008201527f7265737300000000000000000000000000000000000000000000000000000000602082015250565b60006139036024836127d8565b915061390e826138a7565b604082019050919050565b60006020820190508181036000830152613932816138f6565b9050919050565b60006139458284612f25565b915081905092915050565b7f4552433732313a20617070726f766520746f2063616c6c657200000000000000600082015250565b60006139866019836127d8565b915061399182613950565b602082019050919050565b600060208201905081810360008301526139b581613979565b9050919050565b7f4552433732313a207472616e7366657220746f206e6f6e20455243373231526560008201527f63656976657220696d706c656d656e7465720000000000000000000000000000602082015250565b6000613a186032836127d8565b9150613a23826139bc565b604082019050919050565b60006020820190508181036000830152613a4781613a0b565b9050919050565b6000613a598261287f565b9150613a648361287f565b925082613a7457613a73612f78565b5b828204905092915050565b6000613a8a8261287f565b9150613a958361287f565b9250828202613aa38161287f565b91508282048414831517613aba57613ab961339c565b5b5092915050565b7f45524337323155524953746f726167653a2055524920736574206f66206e6f6e60008201527f6578697374656e7420746f6b656e000000000000000000000000000000000000602082015250565b6000613b1d602e836127d8565b9150613b2882613ac1565b604082019050919050565b60006020820190508181036000830152613b4c81613b10565b9050919050565b60006020601f8301049050919050565b600082821b905092915050565b600060088302613ba07fffffffffffffffffffffffffffffffffffffffffffffffffffffffffffffffff82613b63565b613baa8683613b63565b95508019841693508086168417925050509392505050565b6000819050919050565b6000613be7613be2613bdd8461287f565b613bc2565b61287f565b9050919050565b6000819050919050565b613c0183613bcc565b613c15613c0d82613bee565b848454613b70565b825550505050565b600090565b613c2a613c1d565b613c35818484613bf8565b505050565b5b81811015613c5957613c4e600082613c22565b600181019050613c3b565b5050565b601f821115613c9e57613c6f8161349c565b613c7884613b53565b81016020851015613c87578190505b613c9b613c9385613b53565b830182613c3a565b50505b505050565b600082821c905092915050565b6000613cc160001984600802613ca3565b1980831691505092915050565b6000613cda8383613cb0565b9150826002028217905092915050565b613cf3826127cd565b67ffffffffffffffff811115613d0c57613d0b612aca565b5b613d168254612ce7565b613d21828285613c5d565b600060209050601f831160018114613d545760008415613d42578287015190505b613d4c8582613cce565b865550613db4565b601f198416613d628661349c565b60005b82811015613d8a57848901518255600182019150602085019450602081019050613d65565b86831015613da75784890151613da3601f891682613cb0565b8355505b6001600288020188555050505b505050505050565b60006060820190508181036000830152613dd68186612824565b9050613de56020830185612a2a565b613df26040830184612914565b949350505050565b6000613e058261287f565b9150613e108361287f565b9250828203905081811115613e2857613e2761339c565b5b92915050565b600081519050919050565b600082825260208201905092915050565b6000613e5582613e2e565b613e5f8185613e39565b9350613e6f8185602086016127e9565b613e7881612813565b840191505092915050565b6000608082019050613e986000830187612914565b613ea56020830186612914565b613eb26040830185612a2a565b8181036060830152613ec48184613e4a565b905095945050505050565b600081519050613ede8161273e565b92915050565b600060208284031215613efa57613ef9612708565b5b6000613f0884828501613ecf565b91505092915050565b7f4552433732313a206d696e7420746f20746865207a65726f2061646472657373600082015250565b6000613f476020836127d8565b9150613f5282613f11565b602082019050919050565b60006020820190508181036000830152613f7681613f3a565b9050919050565b7f4552433732313a20746f6b656e20616c7265616479206d696e74656400000000600082015250565b6000613fb3601c836127d8565b9150613fbe82613f7d565b602082019050919050565b60006020820190508181036000830152613fe281613fa6565b905091905056fe416e204e465420772f20494420257320686173206265656e206d696e74656420746f2025734142434445464748494a4b4c4d4e4f505152535455565758595a6162636465666768696a6b6c6d6e6f707172737475767778797a303132333435363738392b2fa26469706673582212204f6738bcf9bcff08e235ead0e9702b7b8dc209bf12b7c06d93d8dcbc6f5fc86b64736f6c634300081100333c73766720786d6c6e733d27687474703a2f2f7777772e77332e6f72672f323030302f73766727207072657365727665417370656374526174696f3d27784d696e594d696e206d656574272076696577426f783d273020302033353020333530273e3c7374796c653e2e62617365207b2066696c6c3a2077686974653b20666f6e742d66616d696c793a54686973206973206d792065706963204865726f206e667420736d61727420636f6e74726163743b20666f6e742d73697a653a20323470783b207d3c2f7374796c653e3c726563742077696474683d273130302527206865696768743d2731303025272066696c6c3d27272f3e3c7465787420783d273530252720793d273530252720636c6173733d27626173652720646f6d696e616e742d626173656c696e653d276d6964646c652720746578742d616e63686f723d276d6964646c65273e",
  "linkReferences": {},
  "deployedLinkReferences": {}
}