{
  "_format": "hh-sol-artifact-1",
  "contractName": "MyEpicNFT",
  "sourceName": "contracts/MyEpicNFT.sol",
  "abi": [
    {
      "inputs": [],
      "stateMutability": "nonpayable",
      "type": "constructor"
    },
    {
      "anonymous": false,
      "inputs": [
        {
          "indexed": true,
          "internalType": "address",
          "name": "owner",
          "type": "address"
        },
        {
          "indexed": true,
          "internalType": "address",
          "name": "approved",
          "type": "address"
        },
        {
          "indexed": true,
          "internalType": "uint256",
          "name": "tokenId",
          "type": "uint256"
        }
      ],
      "name": "Approval",
      "type": "event"
    },
    {
      "anonymous": false,
      "inputs": [
        {
          "indexed": true,
          "internalType": "address",
          "name": "owner",
          "type": "address"
        },
        {
          "indexed": true,
          "internalType": "address",
          "name": "operator",
          "type": "address"
        },
        {
          "indexed": false,
          "internalType": "bool",
          "name": "approved",
          "type": "bool"
        }
      ],
      "name": "ApprovalForAll",
      "type": "event"
    },
    {
      "anonymous": false,
      "inputs": [
        {
          "indexed": false,
          "internalType": "uint256",
          "name": "totalNFTs",
          "type": "uint256"
        },
        {
          "indexed": false,
          "internalType": "uint256",
          "name": "mintTimes",
          "type": "uint256"
        }
      ],
      "name": "GetTotalNFTMint",
      "type": "event"
    },
    {
      "anonymous": false,
      "inputs": [
        {
          "indexed": false,
          "internalType": "address",
          "name": "sender",
          "type": "address"
        },
        {
          "indexed": false,
          "internalType": "uint256",
          "name": "tokenId",
          "type": "uint256"
        }
      ],
      "name": "NewEpicNFTMinted",
      "type": "event"
    },
    {
      "anonymous": false,
      "inputs": [
        {
          "indexed": true,
          "internalType": "address",
          "name": "from",
          "type": "address"
        },
        {
          "indexed": true,
          "internalType": "address",
          "name": "to",
          "type": "address"
        },
        {
          "indexed": true,
          "internalType": "uint256",
          "name": "tokenId",
          "type": "uint256"
        }
      ],
      "name": "Transfer",
      "type": "event"
    },
    {
      "inputs": [
        {
          "internalType": "address",
          "name": "to",
          "type": "address"
        },
        {
          "internalType": "uint256",
          "name": "tokenId",
          "type": "uint256"
        }
      ],
      "name": "approve",
      "outputs": [],
      "stateMutability": "nonpayable",
      "type": "function"
    },
    {
      "inputs": [
        {
          "internalType": "address",
          "name": "owner",
          "type": "address"
        }
      ],
      "name": "balanceOf",
      "outputs": [
        {
          "internalType": "uint256",
          "name": "",
          "type": "uint256"
        }
      ],
      "stateMutability": "view",
      "type": "function"
    },
    {
      "inputs": [
        {
          "internalType": "uint256",
          "name": "tokenId",
          "type": "uint256"
        }
      ],
      "name": "getApproved",
      "outputs": [
        {
          "internalType": "address",
          "name": "",
          "type": "address"
        }
      ],
      "stateMutability": "view",
      "type": "function"
    },
    {
      "inputs": [
        {
          "internalType": "address",
          "name": "owner",
          "type": "address"
        },
        {
          "internalType": "address",
          "name": "operator",
          "type": "address"
        }
      ],
      "name": "isApprovedForAll",
      "outputs": [
        {
          "internalType": "bool",
          "name": "",
          "type": "bool"
        }
      ],
      "stateMutability": "view",
      "type": "function"
    },
    {
      "inputs": [
        {
          "internalType": "address",
          "name": "",
          "type": "address"
        }
      ],
      "name": "lastMintAt",
      "outputs": [
        {
          "internalType": "uint256",
          "name": "",
          "type": "uint256"
        }
      ],
      "stateMutability": "view",
      "type": "function"
    },
    {
      "inputs": [],
      "name": "makeAnEpicNFT",
      "outputs": [],
      "stateMutability": "nonpayable",
      "type": "function"
    },
    {
      "inputs": [],
      "name": "name",
      "outputs": [
        {
          "internalType": "string",
          "name": "",
          "type": "string"
        }
      ],
      "stateMutability": "view",
      "type": "function"
    },
    {
      "inputs": [
        {
          "internalType": "uint256",
          "name": "tokenId",
          "type": "uint256"
        }
      ],
      "name": "ownerOf",
      "outputs": [
        {
          "internalType": "address",
          "name": "",
          "type": "address"
        }
      ],
      "stateMutability": "view",
      "type": "function"
    },
    {
      "inputs": [
        {
          "internalType": "uint256",
          "name": "tokenId",
          "type": "uint256"
        }
      ],
      "name": "pickRandomFirstWord",
      "outputs": [
        {
          "internalType": "string",
          "name": "",
          "type": "string"
        }
      ],
      "stateMutability": "view",
      "type": "function"
    },
    {
      "inputs": [
        {
          "internalType": "uint256",
          "name": "tokenId",
          "type": "uint256"
        }
      ],
      "name": "pickRandomFontFamily",
      "outputs": [
        {
          "internalType": "string",
          "name": "",
          "type": "string"
        }
      ],
      "stateMutability": "view",
      "type": "function"
    },
    {
      "inputs": [
        {
          "internalType": "uint256",
          "name": "tokenId",
          "type": "uint256"
        }
      ],
      "name": "pickRandomSecondWord",
      "outputs": [
        {
          "internalType": "string",
          "name": "",
          "type": "string"
        }
      ],
      "stateMutability": "view",
      "type": "function"
    },
    {
      "inputs": [
        {
          "internalType": "uint256",
          "name": "tokenId",
          "type": "uint256"
        }
      ],
      "name": "pickRandomThirdWord",
      "outputs": [
        {
          "internalType": "string",
          "name": "",
          "type": "string"
        }
      ],
      "stateMutability": "view",
      "type": "function"
    },
    {
      "inputs": [
        {
          "internalType": "address",
          "name": "from",
          "type": "address"
        },
        {
          "internalType": "address",
          "name": "to",
          "type": "address"
        },
        {
          "internalType": "uint256",
          "name": "tokenId",
          "type": "uint256"
        }
      ],
      "name": "safeTransferFrom",
      "outputs": [],
      "stateMutability": "nonpayable",
      "type": "function"
    },
    {
      "inputs": [
        {
          "internalType": "address",
          "name": "from",
          "type": "address"
        },
        {
          "internalType": "address",
          "name": "to",
          "type": "address"
        },
        {
          "internalType": "uint256",
          "name": "tokenId",
          "type": "uint256"
        },
        {
          "internalType": "bytes",
          "name": "_data",
          "type": "bytes"
        }
      ],
      "name": "safeTransferFrom",
      "outputs": [],
      "stateMutability": "nonpayable",
      "type": "function"
    },
    {
      "inputs": [
        {
          "internalType": "address",
          "name": "operator",
          "type": "address"
        },
        {
          "internalType": "bool",
          "name": "approved",
          "type": "bool"
        }
      ],
      "name": "setApprovalForAll",
      "outputs": [],
      "stateMutability": "nonpayable",
      "type": "function"
    },
    {
      "inputs": [
        {
          "internalType": "bytes4",
          "name": "interfaceId",
          "type": "bytes4"
        }
      ],
      "name": "supportsInterface",
      "outputs": [
        {
          "internalType": "bool",
          "name": "",
          "type": "bool"
        }
      ],
      "stateMutability": "view",
      "type": "function"
    },
    {
      "inputs": [],
      "name": "symbol",
      "outputs": [
        {
          "internalType": "string",
          "name": "",
          "type": "string"
        }
      ],
      "stateMutability": "view",
      "type": "function"
    },
    {
      "inputs": [
        {
          "internalType": "uint256",
          "name": "tokenId",
          "type": "uint256"
        }
      ],
      "name": "tokenURI",
      "outputs": [
        {
          "internalType": "string",
          "name": "",
          "type": "string"
        }
      ],
      "stateMutability": "view",
      "type": "function"
    },
    {
      "inputs": [
        {
          "internalType": "address",
          "name": "from",
          "type": "address"
        },
        {
          "internalType": "address",
          "name": "to",
          "type": "address"
        },
        {
          "internalType": "uint256",
          "name": "tokenId",
          "type": "uint256"
        }
      ],
      "name": "transferFrom",
      "outputs": [],
      "stateMutability": "nonpayable",
      "type": "function"
    }
  ],
  "bytecode": "0x6080604052603260075560006008556040518060c00160405280608a815260200162004a4c608a9139600a90805190602001906200003f9291906200088a565b5060405180608001604052806043815260200162004ad660439139600b9080519060200190620000719291906200088a565b5060405180608001604052806056815260200162004b3b60569139600c9080519060200190620000a39291906200088a565b506040518060c001604052806040518060400160405280600d81526020017f436f6d69632053616e73204d530000000000000000000000000000000000000081525081526020016040518060400160405280600b81526020017f436f70706572706c61746500000000000000000000000000000000000000000081525081526020016040518060400160405280600581526020017f736572696600000000000000000000000000000000000000000000000000000081525081526020016040518060400160405280600781526020017f506170797275730000000000000000000000000000000000000000000000000081525081526020016040518060400160405280600681526020017f496d70616374000000000000000000000000000000000000000000000000000081525081526020016040518060400160405280600881526020017f43686172636f616c000000000000000000000000000000000000000000000000815250815250600e906006620002219291906200091b565b506040518060c001604052806040518060400160405280600481526020017f436f6c640000000000000000000000000000000000000000000000000000000081525081526020016040518060400160405280600581526020017f477265617400000000000000000000000000000000000000000000000000000081525081526020016040518060400160405280600581526020017f46756e6e7900000000000000000000000000000000000000000000000000000081525081526020016040518060400160405280600681526020017f5374726f6e67000000000000000000000000000000000000000000000000000081525081526020016040518060400160405280600781526020017f426164646573740000000000000000000000000000000000000000000000000081525081526020016040518060400160405280600981526020017f48617070696e6573730000000000000000000000000000000000000000000000815250815250600f9060066200039f9291906200091b565b506040518060c001604052806040518060400160405280600581526020017f626c61636b00000000000000000000000000000000000000000000000000000081525081526020016040518060400160405280600481526020017f426c75650000000000000000000000000000000000000000000000000000000081525081526020016040518060400160405280600481526020017f50696e6b0000000000000000000000000000000000000000000000000000000081525081526020016040518060400160405280600681526020017f59656c6c6f77000000000000000000000000000000000000000000000000000081525081526020016040518060400160405280600381526020017f526564000000000000000000000000000000000000000000000000000000000081525081526020016040518060400160405280600581526020017f477265656e00000000000000000000000000000000000000000000000000000081525081525060109060066200051d9291906200091b565b506040518060c001604052806040518060400160405280600781526020017f4d6f6e737465720000000000000000000000000000000000000000000000000081525081526020016040518060400160405280600681526020017f447261676f6e000000000000000000000000000000000000000000000000000081525081526020016040518060400160405280600781526020017f4e6f6f646c65730000000000000000000000000000000000000000000000000081525081526020016040518060400160405280600581526020017f416e676c6500000000000000000000000000000000000000000000000000000081525081526020016040518060400160405280600381526020017f4d616e000000000000000000000000000000000000000000000000000000000081525081526020016040518060400160405280600581526020017f576f6d656e00000000000000000000000000000000000000000000000000000081525081525060119060066200069b9291906200091b565b50348015620006a957600080fd5b506040518060400160405280600981526020017f5371756172654e465400000000000000000000000000000000000000000000008152506040518060400160405280600681526020017f535155415245000000000000000000000000000000000000000000000000000081525081600090805190602001906200072e9291906200088a565b508060019080519060200190620007479291906200088a565b5050506200077960405180606001604052806022815260200162004b1960229139620007be60201b620013f01760201c565b7f41deadfc504019bfcc781035ac7df7f9839cdc958fac7e95a3e495c65c87500c600754600854604051620007b092919062000a85565b60405180910390a162000b84565b6200085e81604051602401620007d5919062000a61565b6040516020818303038152906040527f41304fac000000000000000000000000000000000000000000000000000000007bffffffffffffffffffffffffffffffffffffffffffffffffffffffff19166020820180517bffffffffffffffffffffffffffffffffffffffffffffffffffffffff83818316178352505050506200086160201b60201c565b50565b60008151905060006a636f6e736f6c652e6c6f679050602083016000808483855afa5050505050565b828054620008989062000b0e565b90600052602060002090601f016020900481019282620008bc576000855562000908565b82601f10620008d757805160ff191683800117855562000908565b8280016001018555821562000908579182015b8281111562000907578251825591602001919060010190620008ea565b5b50905062000917919062000982565b5090565b8280548282559060005260206000209081019282156200096f579160200282015b828111156200096e5782518290805190602001906200095d9291906200088a565b50916020019190600101906200093c565b5b5090506200097e9190620009a1565b5090565b5b808211156200099d57600081600090555060010162000983565b5090565b5b80821115620009c55760008181620009bb9190620009c9565b50600101620009a2565b5090565b508054620009d79062000b0e565b6000825580601f10620009eb575062000a0c565b601f01602090049060005260206000209081019062000a0b919062000982565b5b50565b600062000a1c8262000ab2565b62000a28818562000abd565b935062000a3a81856020860162000ad8565b62000a458162000b73565b840191505092915050565b62000a5b8162000ace565b82525050565b6000602082019050818103600083015262000a7d818462000a0f565b905092915050565b600060408201905062000a9c600083018562000a50565b62000aab602083018462000a50565b9392505050565b600081519050919050565b600082825260208201905092915050565b6000819050919050565b60005b8381101562000af857808201518184015260208101905062000adb565b8381111562000b08576000848401525b50505050565b6000600282049050600182168062000b2757607f821691505b6020821081141562000b3e5762000b3d62000b44565b5b50919050565b7f4e487b7100000000000000000000000000000000000000000000000000000000600052602260045260246000fd5b6000601f19601f8301169050919050565b613eb88062000b946000396000f3fe608060405234801561001057600080fd5b50600436106101215760003560e01c806370a08231116100ad578063c575757a11610071578063c575757a1461033e578063c87b56dd1461036e578063ce26da101461039e578063de9d132f146103ce578063e985e9c5146103d857610121565b806370a082311461028857806395d89b41146102b8578063a22cb465146102d6578063b187301f146102f2578063b88d4fde1461032257610121565b806323b872dd116100f457806323b872dd146101c05780632de38d68146101dc578063384c40ba1461020c57806342842e0e1461023c5780636352211e1461025857610121565b806301ffc9a71461012657806306fdde0314610156578063081812fc14610174578063095ea7b3146101a4575b600080fd5b610140600480360381019061013b91906127fd565b610408565b60405161014d9190612fc6565b60405180910390f35b61015e6104ea565b60405161016b9190612fe1565b60405180910390f35b61018e6004803603810190610189919061284f565b61057c565b60405161019b9190612f36565b60405180910390f35b6101be60048036038101906101b991906127c1565b610601565b005b6101da60048036038101906101d591906126bb565b610719565b005b6101f660048036038101906101f1919061284f565b610779565b6040516102039190612fe1565b60405180910390f35b61022660048036038101906102219190612656565b610897565b6040516102339190613281565b60405180910390f35b610256600480360381019061025191906126bb565b6108af565b005b610272600480360381019061026d919061284f565b6108cf565b60405161027f9190612f36565b60405180910390f35b6102a2600480360381019061029d9190612656565b610981565b6040516102af9190613281565b60405180910390f35b6102c0610a39565b6040516102cd9190612fe1565b60405180910390f35b6102f060048036038101906102eb9190612785565b610acb565b005b61030c6004803603810190610307919061284f565b610ae1565b6040516103199190612fe1565b60405180910390f35b61033c6004803603810190610337919061270a565b610bff565b005b6103586004803603810190610353919061284f565b610c61565b6040516103659190612fe1565b60405180910390f35b6103886004803603810190610383919061284f565b610d7f565b6040516103959190612fe1565b60405180910390f35b6103b860048036038101906103b3919061284f565b610ed1565b6040516103c59190612fe1565b60405180910390f35b6103d6610fef565b005b6103f260048036038101906103ed919061267f565b61135c565b6040516103ff9190612fc6565b60405180910390f35b60007f80ac58cd000000000000000000000000000000000000000000000000000000007bffffffffffffffffffffffffffffffffffffffffffffffffffffffff1916827bffffffffffffffffffffffffffffffffffffffffffffffffffffffff191614806104d357507f5b5e139f000000000000000000000000000000000000000000000000000000007bffffffffffffffffffffffffffffffffffffffffffffffffffffffff1916827bffffffffffffffffffffffffffffffffffffffffffffffffffffffff1916145b806104e357506104e282611489565b5b9050919050565b6060600080546104f99061353e565b80601f01602080910402602001604051908101604052809291908181526020018280546105259061353e565b80156105725780601f1061054757610100808354040283529160200191610572565b820191906000526020600020905b81548152906001019060200180831161055557829003601f168201915b5050505050905090565b6000610587826114f3565b6105c6576040517f08c379a00000000000000000000000000000000000000000000000000000000081526004016105bd906131e1565b60405180910390fd5b6004600083815260200190815260200160002060009054906101000a900473ffffffffffffffffffffffffffffffffffffffff169050919050565b600061060c826108cf565b90508073ffffffffffffffffffffffffffffffffffffffff168373ffffffffffffffffffffffffffffffffffffffff16141561067d576040517f08c379a000000000000000000000000000000000000000000000000000000000815260040161067490613221565b60405180910390fd5b8073ffffffffffffffffffffffffffffffffffffffff1661069c61155f565b73ffffffffffffffffffffffffffffffffffffffff1614806106cb57506106ca816106c561155f565b61135c565b5b61070a576040517f08c379a000000000000000000000000000000000000000000000000000000000815260040161070190613121565b60405180910390fd5b6107148383611567565b505050565b61072a61072461155f565b82611620565b610769576040517f08c379a000000000000000000000000000000000000000000000000000000000815260040161076090613241565b60405180910390fd5b6107748383836116fe565b505050565b606060006107ad61078984611965565b6040516020016107999190612ef2565b604051602081830303815290604052611b12565b9050600f80549050816107c091906135ea565b9050600f81815481106107fc577f4e487b7100000000000000000000000000000000000000000000000000000000600052603260045260246000fd5b9060005260206000200180546108119061353e565b80601f016020809104026020016040519081016040528092919081815260200182805461083d9061353e565b801561088a5780601f1061085f5761010080835404028352916020019161088a565b820191906000526020600020905b81548152906001019060200180831161086d57829003601f168201915b5050505050915050919050565b600d6020528060005260406000206000915090505481565b6108ca83838360405180602001604052806000815250610bff565b505050565b6000806002600084815260200190815260200160002060009054906101000a900473ffffffffffffffffffffffffffffffffffffffff169050600073ffffffffffffffffffffffffffffffffffffffff168173ffffffffffffffffffffffffffffffffffffffff161415610978576040517f08c379a000000000000000000000000000000000000000000000000000000000815260040161096f90613161565b60405180910390fd5b80915050919050565b60008073ffffffffffffffffffffffffffffffffffffffff168273ffffffffffffffffffffffffffffffffffffffff1614156109f2576040517f08c379a00000000000000000000000000000000000000000000000000000000081526004016109e990613141565b60405180910390fd5b600360008373ffffffffffffffffffffffffffffffffffffffff1673ffffffffffffffffffffffffffffffffffffffff168152602001908152602001600020549050919050565b606060018054610a489061353e565b80601f0160208091040260200160405190810160405280929190818152602001828054610a749061353e565b8015610ac15780601f10610a9657610100808354040283529160200191610ac1565b820191906000526020600020905b815481529060010190602001808311610aa457829003601f168201915b5050505050905090565b610add610ad661155f565b8383611b45565b5050565b60606000610b15610af184611965565b604051602001610b019190612e8b565b604051602081830303815290604052611b12565b905060108054905081610b2891906135ea565b905060108181548110610b64577f4e487b7100000000000000000000000000000000000000000000000000000000600052603260045260246000fd5b906000526020600020018054610b799061353e565b80601f0160208091040260200160405190810160405280929190818152602001828054610ba59061353e565b8015610bf25780601f10610bc757610100808354040283529160200191610bf2565b820191906000526020600020905b815481529060010190602001808311610bd557829003601f168201915b5050505050915050919050565b610c10610c0a61155f565b83611620565b610c4f576040517f08c379a0000000000000000000000000000000000000000000000000000000008152600401610c4690613241565b60405180910390fd5b610c5b84848484611cb2565b50505050565b60606000610c95610c7184611965565b604051602001610c819190612e47565b604051602081830303815290604052611b12565b905060118054905081610ca891906135ea565b905060118181548110610ce4577f4e487b7100000000000000000000000000000000000000000000000000000000600052603260045260246000fd5b906000526020600020018054610cf99061353e565b80601f0160208091040260200160405190810160405280929190818152602001828054610d259061353e565b8015610d725780601f10610d4757610100808354040283529160200191610d72565b820191906000526020600020905b815481529060010190602001808311610d5557829003601f168201915b5050505050915050919050565b6060610d8a826114f3565b610dc9576040517f08c379a0000000000000000000000000000000000000000000000000000000008152600401610dc0906131c1565b60405180910390fd5b6000600660008481526020019081526020016000208054610de99061353e565b80601f0160208091040260200160405190810160405280929190818152602001828054610e159061353e565b8015610e625780601f10610e3757610100808354040283529160200191610e62565b820191906000526020600020905b815481529060010190602001808311610e4557829003601f168201915b505050505090506000610e73611d0e565b9050600081511415610e89578192505050610ecc565b600082511115610ebe578082604051602001610ea6929190612d8f565b60405160208183030381529060405292505050610ecc565b610ec784611d25565b925050505b919050565b60606000610f05610ee184611965565b604051602001610ef19190612e69565b604051602081830303815290604052611b12565b9050600e8054905081610f1891906135ea565b9050600e8181548110610f54577f4e487b7100000000000000000000000000000000000000000000000000000000600052603260045260246000fd5b906000526020600020018054610f699061353e565b80601f0160208091040260200160405190810160405280929190818152602001828054610f959061353e565b8015610fe25780601f10610fb757610100808354040283529160200191610fe2565b820191906000526020600020905b815481529060010190602001808311610fc557829003601f168201915b5050505050915050919050565b60075460085410611035576040517f08c379a000000000000000000000000000000000000000000000000000000000815260040161102c90613061565b60405180910390fd5b42603c600d60003373ffffffffffffffffffffffffffffffffffffffff1673ffffffffffffffffffffffffffffffffffffffff168152602001908152602001600020546110829190613373565b106110c2576040517f08c379a00000000000000000000000000000000000000000000000000000000081526004016110b990613261565b60405180910390fd5b42600d60003373ffffffffffffffffffffffffffffffffffffffff1673ffffffffffffffffffffffffffffffffffffffff1681526020019081526020016000208190555060006111126009611dcc565b90506001600860008282546111279190613373565b92505081905550600061113982610779565b9050600061114683610ae1565b9050600061115384610c61565b9050600061116085610ed1565b9050600084848460405160200161117993929190612db3565b60405160208183030381529060405290506000600a83600b87600c866040516020016111aa96959493929190612de4565b604051602081830303815290604052905060006111ef836111ca84611dda565b6040516020016111db929190612ead565b604051602081830303815290604052611dda565b90506000816040516020016112049190612f14565b60405160208183030381529060405290506112536040518060400160405280601581526020017f0a2d2d2d2d2d2d2d2d2d2d2d2d2d2d2d2d2d2d2d2d00000000000000000000008152506113f0565b61125c816113f0565b61129a6040518060400160405280601581526020017f2d2d2d2d2d2d2d2d2d2d2d2d2d2d2d2d2d2d2d2d0a00000000000000000000008152506113f0565b6112a4338a611f79565b6112ae8982611f97565b6112b8600961200b565b6112db604051806060016040528060258152602001613e1e602591398a33612021565b7febb98688741ffa4c7589bf325de30cf7becb63de567842e1ccdb6cb949fdc82c338a60405161130c929190612f9d565b60405180910390a17f41deadfc504019bfcc781035ac7df7f9839cdc958fac7e95a3e495c65c87500c60075460085460405161134992919061329c565b60405180910390a1505050505050505050565b6000600560008473ffffffffffffffffffffffffffffffffffffffff1673ffffffffffffffffffffffffffffffffffffffff16815260200190815260200160002060008373ffffffffffffffffffffffffffffffffffffffff1673ffffffffffffffffffffffffffffffffffffffff16815260200190815260200160002060009054906101000a900460ff16905092915050565b611486816040516024016114049190612fe1565b6040516020818303038152906040527f41304fac000000000000000000000000000000000000000000000000000000007bffffffffffffffffffffffffffffffffffffffffffffffffffffffff19166020820180517bffffffffffffffffffffffffffffffffffffffffffffffffffffffff83818316178352505050506120c0565b50565b60007f01ffc9a7000000000000000000000000000000000000000000000000000000007bffffffffffffffffffffffffffffffffffffffffffffffffffffffff1916827bffffffffffffffffffffffffffffffffffffffffffffffffffffffff1916149050919050565b60008073ffffffffffffffffffffffffffffffffffffffff166002600084815260200190815260200160002060009054906101000a900473ffffffffffffffffffffffffffffffffffffffff1673ffffffffffffffffffffffffffffffffffffffff1614159050919050565b600033905090565b816004600083815260200190815260200160002060006101000a81548173ffffffffffffffffffffffffffffffffffffffff021916908373ffffffffffffffffffffffffffffffffffffffff160217905550808273ffffffffffffffffffffffffffffffffffffffff166115da836108cf565b73ffffffffffffffffffffffffffffffffffffffff167f8c5be1e5ebec7d5bd14f71427d1e84f3dd0314c0f7b2291e5b200ac8c7c3b92560405160405180910390a45050565b600061162b826114f3565b61166a576040517f08c379a000000000000000000000000000000000000000000000000000000000815260040161166190613101565b60405180910390fd5b6000611675836108cf565b90508073ffffffffffffffffffffffffffffffffffffffff168473ffffffffffffffffffffffffffffffffffffffff1614806116b757506116b6818561135c565b5b806116f557508373ffffffffffffffffffffffffffffffffffffffff166116dd8461057c565b73ffffffffffffffffffffffffffffffffffffffff16145b91505092915050565b8273ffffffffffffffffffffffffffffffffffffffff1661171e826108cf565b73ffffffffffffffffffffffffffffffffffffffff1614611774576040517f08c379a000000000000000000000000000000000000000000000000000000000815260040161176b90613081565b60405180910390fd5b600073ffffffffffffffffffffffffffffffffffffffff168273ffffffffffffffffffffffffffffffffffffffff1614156117e4576040517f08c379a00000000000000000000000000000000000000000000000000000000081526004016117db906130c1565b60405180910390fd5b6117ef8383836120e9565b6117fa600082611567565b6001600360008573ffffffffffffffffffffffffffffffffffffffff1673ffffffffffffffffffffffffffffffffffffffff168152602001908152602001600020600082825461184a9190613454565b925050819055506001600360008473ffffffffffffffffffffffffffffffffffffffff1673ffffffffffffffffffffffffffffffffffffffff16815260200190815260200160002060008282546118a19190613373565b92505081905550816002600083815260200190815260200160002060006101000a81548173ffffffffffffffffffffffffffffffffffffffff021916908373ffffffffffffffffffffffffffffffffffffffff160217905550808273ffffffffffffffffffffffffffffffffffffffff168473ffffffffffffffffffffffffffffffffffffffff167fddf252ad1be2c89b69c2b068fc378daa952ba7f163c4a11628f55a4df523b3ef60405160405180910390a46119608383836120ee565b505050565b606060008214156119ad576040518060400160405280600181526020017f30000000000000000000000000000000000000000000000000000000000000008152509050611b0d565b600082905060005b600082146119df5780806119c8906135a1565b915050600a826119d891906133c9565b91506119b5565b60008167ffffffffffffffff811115611a21577f4e487b7100000000000000000000000000000000000000000000000000000000600052604160045260246000fd5b6040519080825280601f01601f191660200182016040528015611a535781602001600182028036833780820191505090505b5090505b60008514611b0657600182611a6c9190613454565b9150600a85611a7b91906135ea565b6030611a879190613373565b60f81b818381518110611ac3577f4e487b7100000000000000000000000000000000000000000000000000000000600052603260045260246000fd5b60200101907effffffffffffffffffffffffffffffffffffffffffffffffffffffffffffff1916908160001a905350600a85611aff91906133c9565b9450611a57565b8093505050505b919050565b600081604051602001611b259190612d78565b6040516020818303038152906040528051906020012060001c9050919050565b8173ffffffffffffffffffffffffffffffffffffffff168373ffffffffffffffffffffffffffffffffffffffff161415611bb4576040517f08c379a0000000000000000000000000000000000000000000000000000000008152600401611bab906130e1565b60405180910390fd5b80600560008573ffffffffffffffffffffffffffffffffffffffff1673ffffffffffffffffffffffffffffffffffffffff16815260200190815260200160002060008473ffffffffffffffffffffffffffffffffffffffff1673ffffffffffffffffffffffffffffffffffffffff16815260200190815260200160002060006101000a81548160ff0219169083151502179055508173ffffffffffffffffffffffffffffffffffffffff168373ffffffffffffffffffffffffffffffffffffffff167f17307eab39ab6107e8899845ad3d59bd9653f200f220920489ca2b5937696c3183604051611ca59190612fc6565b60405180910390a3505050565b611cbd8484846116fe565b611cc9848484846120f3565b611d08576040517f08c379a0000000000000000000000000000000000000000000000000000000008152600401611cff90613041565b60405180910390fd5b50505050565b606060405180602001604052806000815250905090565b6060611d30826114f3565b611d6f576040517f08c379a0000000000000000000000000000000000000000000000000000000008152600401611d6690613201565b60405180910390fd5b6000611d79611d0e565b90506000815111611d995760405180602001604052806000815250611dc4565b80611da384611965565b604051602001611db4929190612d8f565b6040516020818303038152906040525b915050919050565b600081600001549050919050565b6060600082511415611dfd57604051806020016040528060008152509050611f74565b6000604051806060016040528060408152602001613e436040913990506000600360028551611e2c9190613373565b611e3691906133c9565b6004611e4291906133fa565b90506000602082611e539190613373565b67ffffffffffffffff811115611e92577f4e487b7100000000000000000000000000000000000000000000000000000000600052604160045260246000fd5b6040519080825280601f01601f191660200182016040528015611ec45781602001600182028036833780820191505090505b509050818152600183018586518101602084015b81831015611f33576003830192508251603f8160121c168501518253600182019150603f81600c1c168501518253600182019150603f8160061c168501518253600182019150603f8116850151825360018201915050611ed8565b600389510660018114611f4d5760028114611f5d57611f68565b613d3d60f01b6002830352611f68565b603d60f81b60018303525b50505050508093505050505b919050565b611f9382826040518060200160405280600081525061228a565b5050565b611fa0826114f3565b611fdf576040517f08c379a0000000000000000000000000000000000000000000000000000000008152600401611fd690613181565b60405180910390fd5b806006600084815260200190815260200160002090805190602001906120069291906124e2565b505050565b6001816000016000828254019250508190555050565b6120bb83838360405160240161203993929190613003565b6040516020818303038152906040527fe3849f79000000000000000000000000000000000000000000000000000000007bffffffffffffffffffffffffffffffffffffffffffffffffffffffff19166020820180517bffffffffffffffffffffffffffffffffffffffffffffffffffffffff83818316178352505050506120c0565b505050565b60008151905060006a636f6e736f6c652e6c6f679050602083016000808483855afa5050505050565b505050565b505050565b60006121148473ffffffffffffffffffffffffffffffffffffffff166122e5565b1561227d578373ffffffffffffffffffffffffffffffffffffffff1663150b7a0261213d61155f565b8786866040518563ffffffff1660e01b815260040161215f9493929190612f51565b602060405180830381600087803b15801561217957600080fd5b505af19250505080156121aa57506040513d601f19601f820116820180604052508101906121a79190612826565b60015b61222d573d80600081146121da576040519150601f19603f3d011682016040523d82523d6000602084013e6121df565b606091505b50600081511415612225576040517f08c379a000000000000000000000000000000000000000000000000000000000815260040161221c90613041565b60405180910390fd5b805181602001fd5b63150b7a0260e01b7bffffffffffffffffffffffffffffffffffffffffffffffffffffffff1916817bffffffffffffffffffffffffffffffffffffffffffffffffffffffff191614915050612282565b600190505b949350505050565b6122948383612308565b6122a160008484846120f3565b6122e0576040517f08c379a00000000000000000000000000000000000000000000000000000000081526004016122d790613041565b60405180910390fd5b505050565b6000808273ffffffffffffffffffffffffffffffffffffffff163b119050919050565b600073ffffffffffffffffffffffffffffffffffffffff168273ffffffffffffffffffffffffffffffffffffffff161415612378576040517f08c379a000000000000000000000000000000000000000000000000000000000815260040161236f906131a1565b60405180910390fd5b612381816114f3565b156123c1576040517f08c379a00000000000000000000000000000000000000000000000000000000081526004016123b8906130a1565b60405180910390fd5b6123cd600083836120e9565b6001600360008473ffffffffffffffffffffffffffffffffffffffff1673ffffffffffffffffffffffffffffffffffffffff168152602001908152602001600020600082825461241d9190613373565b92505081905550816002600083815260200190815260200160002060006101000a81548173ffffffffffffffffffffffffffffffffffffffff021916908373ffffffffffffffffffffffffffffffffffffffff160217905550808273ffffffffffffffffffffffffffffffffffffffff16600073ffffffffffffffffffffffffffffffffffffffff167fddf252ad1be2c89b69c2b068fc378daa952ba7f163c4a11628f55a4df523b3ef60405160405180910390a46124de600083836120ee565b5050565b8280546124ee9061353e565b90600052602060002090601f0160209004810192826125105760008555612557565b82601f1061252957805160ff1916838001178555612557565b82800160010185558215612557579182015b8281111561255657825182559160200191906001019061253b565b5b5090506125649190612568565b5090565b5b80821115612581576000816000905550600101612569565b5090565b6000612598612593846132ea565b6132c5565b9050828152602081018484840111156125b057600080fd5b6125bb8482856134fc565b509392505050565b6000813590506125d281613dc1565b92915050565b6000813590506125e781613dd8565b92915050565b6000813590506125fc81613def565b92915050565b60008151905061261181613def565b92915050565b600082601f83011261262857600080fd5b8135612638848260208601612585565b91505092915050565b60008135905061265081613e06565b92915050565b60006020828403121561266857600080fd5b6000612676848285016125c3565b91505092915050565b6000806040838503121561269257600080fd5b60006126a0858286016125c3565b92505060206126b1858286016125c3565b9150509250929050565b6000806000606084860312156126d057600080fd5b60006126de868287016125c3565b93505060206126ef868287016125c3565b925050604061270086828701612641565b9150509250925092565b6000806000806080858703121561272057600080fd5b600061272e878288016125c3565b945050602061273f878288016125c3565b935050604061275087828801612641565b925050606085013567ffffffffffffffff81111561276d57600080fd5b61277987828801612617565b91505092959194509250565b6000806040838503121561279857600080fd5b60006127a6858286016125c3565b92505060206127b7858286016125d8565b9150509250929050565b600080604083850312156127d457600080fd5b60006127e2858286016125c3565b92505060206127f385828601612641565b9150509250929050565b60006020828403121561280f57600080fd5b600061281d848285016125ed565b91505092915050565b60006020828403121561283857600080fd5b600061284684828501612602565b91505092915050565b60006020828403121561286157600080fd5b600061286f84828501612641565b91505092915050565b61288181613488565b82525050565b6128908161349a565b82525050565b60006128a182613330565b6128ab8185613346565b93506128bb81856020860161350b565b6128c4816136d7565b840191505092915050565b60006128da8261333b565b6128e48185613357565b93506128f481856020860161350b565b6128fd816136d7565b840191505092915050565b60006129138261333b565b61291d8185613368565b935061292d81856020860161350b565b80840191505092915050565b600081546129468161353e565b6129508186613368565b9450600182166000811461296b576001811461297c576129af565b60ff198316865281860193506129af565b6129858561331b565b60005b838110156129a757815481890152600182019150602081019050612988565b838801955050505b50505092915050565b60006129c5603283613357565b91506129d0826136e8565b604082019050919050565b60006129e8602983613357565b91506129f382613737565b604082019050919050565b6000612a0b602583613357565b9150612a1682613786565b604082019050919050565b6000612a2e601c83613357565b9150612a39826137d5565b602082019050919050565b6000612a51600a83613368565b9150612a5c826137fe565b600a82019050919050565b6000612a74600b83613368565b9150612a7f82613827565b600b82019050919050565b6000612a97602483613357565b9150612aa282613850565b604082019050919050565b6000612aba601983613357565b9150612ac58261389f565b602082019050919050565b6000612add606383613368565b9150612ae8826138c8565b606382019050919050565b6000612b00600b83613368565b9150612b0b82613963565b600b82019050919050565b6000612b23602c83613357565b9150612b2e8261398c565b604082019050919050565b6000612b46600d83613368565b9150612b51826139db565b600d82019050919050565b6000612b69603883613357565b9150612b7482613a04565b604082019050919050565b6000612b8c602a83613357565b9150612b9782613a53565b604082019050919050565b6000612baf602983613357565b9150612bba82613aa2565b604082019050919050565b6000612bd2602e83613357565b9150612bdd82613af1565b604082019050919050565b6000612bf5600283613368565b9150612c0082613b40565b600282019050919050565b6000612c18602083613357565b9150612c2382613b69565b602082019050919050565b6000612c3b603183613357565b9150612c4682613b92565b604082019050919050565b6000612c5e602c83613357565b9150612c6982613be1565b604082019050919050565b6000612c81602f83613357565b9150612c8c82613c30565b604082019050919050565b6000612ca4600a83613368565b9150612caf82613c7f565b600a82019050919050565b6000612cc7602183613357565b9150612cd282613ca8565b604082019050919050565b6000612cea600a83613368565b9150612cf582613cf7565b600a82019050919050565b6000612d0d601d83613368565b9150612d1882613d20565b601d82019050919050565b6000612d30603183613357565b9150612d3b82613d49565b604082019050919050565b6000612d53602083613357565b9150612d5e82613d98565b602082019050919050565b612d72816134f2565b82525050565b6000612d848284612908565b915081905092915050565b6000612d9b8285612908565b9150612da78284612908565b91508190509392505050565b6000612dbf8286612908565b9150612dcb8285612908565b9150612dd78284612908565b9150819050949350505050565b6000612df08289612939565b9150612dfc8288612908565b9150612e088287612939565b9150612e148286612908565b9150612e208285612939565b9150612e2c8284612908565b9150612e3782612b39565b9150819050979650505050505050565b6000612e5282612a44565b9150612e5e8284612908565b915081905092915050565b6000612e7482612a67565b9150612e808284612908565b915081905092915050565b6000612e9682612af3565b9150612ea28284612908565b915081905092915050565b6000612eb882612c97565b9150612ec48285612908565b9150612ecf82612ad0565b9150612edb8284612908565b9150612ee682612be8565b91508190509392505050565b6000612efd82612cdd565b9150612f098284612908565b915081905092915050565b6000612f1f82612d00565b9150612f2b8284612908565b915081905092915050565b6000602082019050612f4b6000830184612878565b92915050565b6000608082019050612f666000830187612878565b612f736020830186612878565b612f806040830185612d69565b8181036060830152612f928184612896565b905095945050505050565b6000604082019050612fb26000830185612878565b612fbf6020830184612d69565b9392505050565b6000602082019050612fdb6000830184612887565b92915050565b60006020820190508181036000830152612ffb81846128cf565b905092915050565b6000606082019050818103600083015261301d81866128cf565b905061302c6020830185612d69565b6130396040830184612878565b949350505050565b6000602082019050818103600083015261305a816129b8565b9050919050565b6000602082019050818103600083015261307a816129db565b9050919050565b6000602082019050818103600083015261309a816129fe565b9050919050565b600060208201905081810360008301526130ba81612a21565b9050919050565b600060208201905081810360008301526130da81612a8a565b9050919050565b600060208201905081810360008301526130fa81612aad565b9050919050565b6000602082019050818103600083015261311a81612b16565b9050919050565b6000602082019050818103600083015261313a81612b5c565b9050919050565b6000602082019050818103600083015261315a81612b7f565b9050919050565b6000602082019050818103600083015261317a81612ba2565b9050919050565b6000602082019050818103600083015261319a81612bc5565b9050919050565b600060208201905081810360008301526131ba81612c0b565b9050919050565b600060208201905081810360008301526131da81612c2e565b9050919050565b600060208201905081810360008301526131fa81612c51565b9050919050565b6000602082019050818103600083015261321a81612c74565b9050919050565b6000602082019050818103600083015261323a81612cba565b9050919050565b6000602082019050818103600083015261325a81612d23565b9050919050565b6000602082019050818103600083015261327a81612d46565b9050919050565b60006020820190506132966000830184612d69565b92915050565b60006040820190506132b16000830185612d69565b6132be6020830184612d69565b9392505050565b60006132cf6132e0565b90506132db8282613570565b919050565b6000604051905090565b600067ffffffffffffffff821115613305576133046136a8565b5b61330e826136d7565b9050602081019050919050565b60008190508160005260206000209050919050565b600081519050919050565b600081519050919050565b600082825260208201905092915050565b600082825260208201905092915050565b600081905092915050565b600061337e826134f2565b9150613389836134f2565b9250827fffffffffffffffffffffffffffffffffffffffffffffffffffffffffffffffff038211156133be576133bd61361b565b5b828201905092915050565b60006133d4826134f2565b91506133df836134f2565b9250826133ef576133ee61364a565b5b828204905092915050565b6000613405826134f2565b9150613410836134f2565b9250817fffffffffffffffffffffffffffffffffffffffffffffffffffffffffffffffff04831182151516156134495761344861361b565b5b828202905092915050565b600061345f826134f2565b915061346a836134f2565b92508282101561347d5761347c61361b565b5b828203905092915050565b6000613493826134d2565b9050919050565b60008115159050919050565b60007fffffffff0000000000000000000000000000000000000000000000000000000082169050919050565b600073ffffffffffffffffffffffffffffffffffffffff82169050919050565b6000819050919050565b82818337600083830152505050565b60005b8381101561352957808201518184015260208101905061350e565b83811115613538576000848401525b50505050565b6000600282049050600182168061355657607f821691505b6020821081141561356a57613569613679565b5b50919050565b613579826136d7565b810181811067ffffffffffffffff82111715613598576135976136a8565b5b80604052505050565b60006135ac826134f2565b91507fffffffffffffffffffffffffffffffffffffffffffffffffffffffffffffffff8214156135df576135de61361b565b5b600182019050919050565b60006135f5826134f2565b9150613600836134f2565b9250826136105761360f61364a565b5b828206905092915050565b7f4e487b7100000000000000000000000000000000000000000000000000000000600052601160045260246000fd5b7f4e487b7100000000000000000000000000000000000000000000000000000000600052601260045260246000fd5b7f4e487b7100000000000000000000000000000000000000000000000000000000600052602260045260246000fd5b7f4e487b7100000000000000000000000000000000000000000000000000000000600052604160045260246000fd5b6000601f19601f8301169050919050565b7f4552433732313a207472616e7366657220746f206e6f6e20455243373231526560008201527f63656976657220696d706c656d656e7465720000000000000000000000000000602082015250565b7f596f752063616e2774206d696e742c796f7520616c7265616479206f6e206d6960008201527f6e74206c696d69742e0000000000000000000000000000000000000000000000602082015250565b7f4552433732313a207472616e736665722066726f6d20696e636f72726563742060008201527f6f776e6572000000000000000000000000000000000000000000000000000000602082015250565b7f4552433732313a20746f6b656e20616c7265616479206d696e74656400000000600082015250565b7f54484952445f574f524400000000000000000000000000000000000000000000600082015250565b7f464f4e545f46414d494c59000000000000000000000000000000000000000000600082015250565b7f4552433732313a207472616e7366657220746f20746865207a65726f2061646460008201527f7265737300000000000000000000000000000000000000000000000000000000602082015250565b7f4552433732313a20617070726f766520746f2063616c6c657200000000000000600082015250565b7f222c20226465736372697074696f6e223a20224120686967686c79206163636c60008201527f61696d656420636f6c6c656374696f6e206f6620737175617265732e222c202260208201527f696d616765223a2022646174613a696d6167652f7376672b786d6c3b6261736560408201527f36342c0000000000000000000000000000000000000000000000000000000000606082015250565b7f5345434f4e445f574f5244000000000000000000000000000000000000000000600082015250565b7f4552433732313a206f70657261746f7220717565727920666f72206e6f6e657860008201527f697374656e7420746f6b656e0000000000000000000000000000000000000000602082015250565b7f3c2f746578743e3c2f7376673e00000000000000000000000000000000000000600082015250565b7f4552433732313a20617070726f76652063616c6c6572206973206e6f74206f7760008201527f6e6572206e6f7220617070726f76656420666f7220616c6c0000000000000000602082015250565b7f4552433732313a2062616c616e636520717565727920666f7220746865207a6560008201527f726f206164647265737300000000000000000000000000000000000000000000602082015250565b7f4552433732313a206f776e657220717565727920666f72206e6f6e657869737460008201527f656e7420746f6b656e0000000000000000000000000000000000000000000000602082015250565b7f45524337323155524953746f726167653a2055524920736574206f66206e6f6e60008201527f6578697374656e7420746f6b656e000000000000000000000000000000000000602082015250565b7f227d000000000000000000000000000000000000000000000000000000000000600082015250565b7f4552433732313a206d696e7420746f20746865207a65726f2061646472657373600082015250565b7f45524337323155524953746f726167653a2055524920717565727920666f722060008201527f6e6f6e6578697374656e7420746f6b656e000000000000000000000000000000602082015250565b7f4552433732313a20617070726f76656420717565727920666f72206e6f6e657860008201527f697374656e7420746f6b656e0000000000000000000000000000000000000000602082015250565b7f4552433732314d657461646174613a2055524920717565727920666f72206e6f60008201527f6e6578697374656e7420746f6b656e0000000000000000000000000000000000602082015250565b7f7b226e616d65223a202200000000000000000000000000000000000000000000600082015250565b7f4552433732313a20617070726f76616c20746f2063757272656e74206f776e6560008201527f7200000000000000000000000000000000000000000000000000000000000000602082015250565b7f46495253545f574f524400000000000000000000000000000000000000000000600082015250565b7f646174613a6170706c69636174696f6e2f6a736f6e3b6261736536342c000000600082015250565b7f4552433732313a207472616e736665722063616c6c6572206973206e6f74206f60008201527f776e6572206e6f7220617070726f766564000000000000000000000000000000602082015250565b7f506c6573616520776169742031206d696e7320666f722065616368206d696e74600082015250565b613dca81613488565b8114613dd557600080fd5b50565b613de18161349a565b8114613dec57600080fd5b50565b613df8816134a6565b8114613e0357600080fd5b50565b613e0f816134f2565b8114613e1a57600080fd5b5056fe416e204e465420772f20494420257320686173206265656e206d696e74656420746f2025734142434445464748494a4b4c4d4e4f505152535455565758595a6162636465666768696a6b6c6d6e6f707172737475767778797a303132333435363738392b2fa2646970667358221220f1ee46510ed8d2c51e83184f9015be01571cae4e2b6ba7f2a87b99506d54dcf764736f6c634300080400333c73766720786d6c6e733d27687474703a2f2f7777772e77332e6f72672f323030302f73766727207072657365727665417370656374526174696f3d27784d696e594d696e206d656574272076696577426f783d273020302033353020333530273e3c7374796c653e2e62617365207b2066696c6c3a2077686974653b20666f6e742d66616d696c793a3b20666f6e742d73697a653a20323470783b207d3c2f7374796c653e3c726563742077696474683d273130302527206865696768743d2731303025272066696c6c3d2754686973206973206d792065706963206e667420736d61727420636f6e7472616374272f3e3c7465787420783d273530252720793d273530252720636c6173733d27626173652720646f6d696e616e742d626173656c696e653d276d6964646c652720746578742d616e63686f723d276d6964646c65273e",
  "linkReferences": {},
  "deployedLinkReferences": {}
}